{
  "address": "0xe7f1725E7734CE288F8367e1Bb143E90bb3F0512",
  "abi": [
    {
      "inputs": [
        {
          "internalType": "string",
          "name": "uri_",
          "type": "string"
        }
      ],
      "stateMutability": "nonpayable",
      "type": "constructor"
    },
    {
      "inputs": [],
      "name": "Guild__TransferNotAllowed",
      "type": "error"
    },
    {
      "anonymous": false,
      "inputs": [
        {
          "indexed": true,
          "internalType": "address",
          "name": "account",
          "type": "address"
        },
        {
          "indexed": true,
          "internalType": "address",
          "name": "operator",
          "type": "address"
        },
        {
          "indexed": false,
          "internalType": "bool",
          "name": "approved",
          "type": "bool"
        }
      ],
      "name": "ApprovalForAll",
      "type": "event"
    },
    {
      "anonymous": false,
      "inputs": [
        {
          "indexed": true,
          "internalType": "address",
          "name": "previousOwner",
          "type": "address"
        },
        {
          "indexed": true,
          "internalType": "address",
          "name": "newOwner",
          "type": "address"
        }
      ],
      "name": "OwnershipTransferred",
      "type": "event"
    },
    {
      "anonymous": false,
      "inputs": [
        {
          "indexed": true,
          "internalType": "address",
          "name": "operator",
          "type": "address"
        },
        {
          "indexed": true,
          "internalType": "address",
          "name": "from",
          "type": "address"
        },
        {
          "indexed": true,
          "internalType": "address",
          "name": "to",
          "type": "address"
        },
        {
          "indexed": false,
          "internalType": "uint256[]",
          "name": "ids",
          "type": "uint256[]"
        },
        {
          "indexed": false,
          "internalType": "uint256[]",
          "name": "values",
          "type": "uint256[]"
        }
      ],
      "name": "TransferBatch",
      "type": "event"
    },
    {
      "anonymous": false,
      "inputs": [
        {
          "indexed": true,
          "internalType": "address",
          "name": "operator",
          "type": "address"
        },
        {
          "indexed": true,
          "internalType": "address",
          "name": "from",
          "type": "address"
        },
        {
          "indexed": true,
          "internalType": "address",
          "name": "to",
          "type": "address"
        },
        {
          "indexed": false,
          "internalType": "uint256",
          "name": "id",
          "type": "uint256"
        },
        {
          "indexed": false,
          "internalType": "uint256",
          "name": "value",
          "type": "uint256"
        }
      ],
      "name": "TransferSingle",
      "type": "event"
    },
    {
      "anonymous": false,
      "inputs": [
        {
          "indexed": false,
          "internalType": "string",
          "name": "value",
          "type": "string"
        },
        {
          "indexed": true,
          "internalType": "uint256",
          "name": "id",
          "type": "uint256"
        }
      ],
      "name": "URI",
      "type": "event"
    },
    {
      "inputs": [
        {
          "internalType": "address",
          "name": "account",
          "type": "address"
        },
        {
          "internalType": "uint256",
          "name": "id",
          "type": "uint256"
        }
      ],
      "name": "balanceOf",
      "outputs": [
        {
          "internalType": "uint256",
          "name": "",
          "type": "uint256"
        }
      ],
      "stateMutability": "view",
      "type": "function"
    },
    {
      "inputs": [
        {
          "internalType": "address[]",
          "name": "accounts",
          "type": "address[]"
        },
        {
          "internalType": "uint256[]",
          "name": "ids",
          "type": "uint256[]"
        }
      ],
      "name": "balanceOfBatch",
      "outputs": [
        {
          "internalType": "uint256[]",
          "name": "",
          "type": "uint256[]"
        }
      ],
      "stateMutability": "view",
      "type": "function"
    },
    {
      "inputs": [
        {
          "internalType": "address",
          "name": "account",
          "type": "address"
        },
        {
          "internalType": "uint256",
          "name": "id",
          "type": "uint256"
        },
        {
          "internalType": "uint256",
          "name": "value",
          "type": "uint256"
        }
      ],
      "name": "burn",
      "outputs": [],
      "stateMutability": "nonpayable",
      "type": "function"
    },
    {
      "inputs": [
        {
          "internalType": "address",
          "name": "account",
          "type": "address"
        },
        {
          "internalType": "uint256[]",
          "name": "ids",
          "type": "uint256[]"
        },
        {
          "internalType": "uint256[]",
          "name": "values",
          "type": "uint256[]"
        }
      ],
      "name": "burnBatch",
      "outputs": [],
      "stateMutability": "nonpayable",
      "type": "function"
    },
    {
      "inputs": [
        {
          "internalType": "address",
          "name": "account",
          "type": "address"
        },
        {
          "internalType": "address",
          "name": "operator",
          "type": "address"
        }
      ],
      "name": "isApprovedForAll",
      "outputs": [
        {
          "internalType": "bool",
          "name": "",
          "type": "bool"
        }
      ],
      "stateMutability": "view",
      "type": "function"
    },
    {
      "inputs": [
        {
          "internalType": "address",
          "name": "account",
          "type": "address"
        },
        {
          "internalType": "uint256",
          "name": "id",
          "type": "uint256"
        },
        {
          "internalType": "uint256",
          "name": "amount",
          "type": "uint256"
        },
        {
          "internalType": "bytes",
          "name": "data",
          "type": "bytes"
        }
      ],
      "name": "mint",
      "outputs": [],
      "stateMutability": "nonpayable",
      "type": "function"
    },
    {
      "inputs": [
        {
          "internalType": "address",
          "name": "to",
          "type": "address"
        },
        {
          "internalType": "uint256[]",
          "name": "ids",
          "type": "uint256[]"
        },
        {
          "internalType": "uint256[]",
          "name": "amounts",
          "type": "uint256[]"
        },
        {
          "internalType": "bytes",
          "name": "data",
          "type": "bytes"
        }
      ],
      "name": "mintBatch",
      "outputs": [],
      "stateMutability": "nonpayable",
      "type": "function"
    },
    {
      "inputs": [],
      "name": "owner",
      "outputs": [
        {
          "internalType": "address",
          "name": "",
          "type": "address"
        }
      ],
      "stateMutability": "view",
      "type": "function"
    },
    {
      "inputs": [],
      "name": "renounceOwnership",
      "outputs": [],
      "stateMutability": "nonpayable",
      "type": "function"
    },
    {
      "inputs": [
        {
          "internalType": "address",
          "name": "from",
          "type": "address"
        },
        {
          "internalType": "address",
          "name": "to",
          "type": "address"
        },
        {
          "internalType": "uint256[]",
          "name": "ids",
          "type": "uint256[]"
        },
        {
          "internalType": "uint256[]",
          "name": "amounts",
          "type": "uint256[]"
        },
        {
          "internalType": "bytes",
          "name": "data",
          "type": "bytes"
        }
      ],
      "name": "safeBatchTransferFrom",
      "outputs": [],
      "stateMutability": "nonpayable",
      "type": "function"
    },
    {
      "inputs": [
        {
          "internalType": "address",
          "name": "from",
          "type": "address"
        },
        {
          "internalType": "address",
          "name": "to",
          "type": "address"
        },
        {
          "internalType": "uint256",
          "name": "id",
          "type": "uint256"
        },
        {
          "internalType": "uint256",
          "name": "amount",
          "type": "uint256"
        },
        {
          "internalType": "bytes",
          "name": "data",
          "type": "bytes"
        }
      ],
      "name": "safeTransferFrom",
      "outputs": [],
      "stateMutability": "nonpayable",
      "type": "function"
    },
    {
      "inputs": [
        {
          "internalType": "address",
          "name": "operator",
          "type": "address"
        },
        {
          "internalType": "bool",
          "name": "approved",
          "type": "bool"
        }
      ],
      "name": "setApprovalForAll",
      "outputs": [],
      "stateMutability": "nonpayable",
      "type": "function"
    },
    {
      "inputs": [
        {
          "internalType": "string",
          "name": "newuri",
          "type": "string"
        }
      ],
      "name": "setURI",
      "outputs": [],
      "stateMutability": "nonpayable",
      "type": "function"
    },
    {
      "inputs": [
        {
          "internalType": "bytes4",
          "name": "interfaceId",
          "type": "bytes4"
        }
      ],
      "name": "supportsInterface",
      "outputs": [
        {
          "internalType": "bool",
          "name": "",
          "type": "bool"
        }
      ],
      "stateMutability": "view",
      "type": "function"
    },
    {
      "inputs": [
        {
          "internalType": "address",
          "name": "newOwner",
          "type": "address"
        }
      ],
      "name": "transferOwnership",
      "outputs": [],
      "stateMutability": "nonpayable",
      "type": "function"
    },
    {
      "inputs": [
        {
          "internalType": "uint256",
          "name": "",
          "type": "uint256"
        }
      ],
      "name": "uri",
      "outputs": [
        {
          "internalType": "string",
          "name": "",
          "type": "string"
        }
      ],
      "stateMutability": "view",
      "type": "function"
    }
  ],
  "transactionHash": "0xe31abdc82c13c938d36c304c2253b7a491eb499ea24bb67b2670745a8aaceeaf",
  "args": [
    "URI"
  ],
  "numDeployments": 1,
  "solcInputHash": "a968ce81e45fd83ea98c985f4978e0ad",
  "bytecode": "0x60806040523480156200001157600080fd5b50604051620041cf380380620041cf83398181016040528101906200003791906200027d565b8062000049816200007160201b60201c565b506200006a6200005e6200008d60201b60201c565b6200009560201b60201c565b5062000432565b8060029080519060200190620000899291906200015b565b5050565b600033905090565b6000600360009054906101000a900473ffffffffffffffffffffffffffffffffffffffff16905081600360006101000a81548173ffffffffffffffffffffffffffffffffffffffff021916908373ffffffffffffffffffffffffffffffffffffffff1602179055508173ffffffffffffffffffffffffffffffffffffffff168173ffffffffffffffffffffffffffffffffffffffff167f8be0079c531659141344cd1fd0a4f28419497f9722a3daafe3b4186f6b6457e060405160405180910390a35050565b828054620001699062000357565b90600052602060002090601f0160209004810192826200018d5760008555620001d9565b82601f10620001a857805160ff1916838001178555620001d9565b82800160010185558215620001d9579182015b82811115620001d8578251825591602001919060010190620001bb565b5b509050620001e89190620001ec565b5090565b5b8082111562000207576000816000905550600101620001ed565b5090565b6000620002226200021c84620002eb565b620002c2565b9050828152602081018484840111156200023b57600080fd5b6200024884828562000321565b509392505050565b600082601f8301126200026257600080fd5b8151620002748482602086016200020b565b91505092915050565b6000602082840312156200029057600080fd5b600082015167ffffffffffffffff811115620002ab57600080fd5b620002b98482850162000250565b91505092915050565b6000620002ce620002e1565b9050620002dc82826200038d565b919050565b6000604051905090565b600067ffffffffffffffff821115620003095762000308620003f2565b5b620003148262000421565b9050602081019050919050565b60005b838110156200034157808201518184015260208101905062000324565b8381111562000351576000848401525b50505050565b600060028204905060018216806200037057607f821691505b60208210811415620003875762000386620003c3565b5b50919050565b620003988262000421565b810181811067ffffffffffffffff82111715620003ba57620003b9620003f2565b5b80604052505050565b7f4e487b7100000000000000000000000000000000000000000000000000000000600052602260045260246000fd5b7f4e487b7100000000000000000000000000000000000000000000000000000000600052604160045260246000fd5b6000601f19601f8301169050919050565b613d8d80620004426000396000f3fe608060405234801561001057600080fd5b50600436106100ff5760003560e01c8063715018a611610097578063e985e9c511610066578063e985e9c514610294578063f242432a146102c4578063f2fde38b146102e0578063f5298aca146102fc576100ff565b8063715018a614610234578063731133e91461023e5780638da5cb5b1461025a578063a22cb46514610278576100ff565b80631f7fdffa116100d35780631f7fdffa146101b05780632eb2c2d6146101cc5780634e1273f4146101e85780636b20c45414610218576100ff565b8062fdd58e1461010457806301ffc9a71461013457806302fe5305146101645780630e89341c14610180575b600080fd5b61011e60048036038101906101199190612b1f565b610318565b60405161012b91906133d1565b60405180910390f35b61014e60048036038101906101499190612c91565b6103e1565b60405161015b91906131b4565b60405180910390f35b61017e60048036038101906101799190612ce3565b6104c3565b005b61019a60048036038101906101959190612d24565b61054b565b6040516101a791906131cf565b60405180910390f35b6101ca60048036038101906101c59190612a38565b6105df565b005b6101e660048036038101906101e1919061286b565b61066d565b005b61020260048036038101906101fd9190612c25565b61070e565b60405161020f919061315b565b60405180910390f35b610232600480360381019061022d91906129b9565b6108bf565b005b61023c61095c565b005b61025860048036038101906102539190612baa565b6109e4565b005b610262610a72565b60405161026f919061307e565b60405180910390f35b610292600480360381019061028d9190612ae3565b610a9c565b005b6102ae60048036038101906102a9919061282f565b610ab2565b6040516102bb91906131b4565b60405180910390f35b6102de60048036038101906102d9919061292a565b610b46565b005b6102fa60048036038101906102f59190612806565b610be7565b005b61031660048036038101906103119190612b5b565b610cdf565b005b60008073ffffffffffffffffffffffffffffffffffffffff168373ffffffffffffffffffffffffffffffffffffffff161415610389576040517f08c379a000000000000000000000000000000000000000000000000000000000815260040161038090613231565b60405180910390fd5b60008083815260200190815260200160002060008473ffffffffffffffffffffffffffffffffffffffff1673ffffffffffffffffffffffffffffffffffffffff16815260200190815260200160002054905092915050565b60007fd9b67a26000000000000000000000000000000000000000000000000000000007bffffffffffffffffffffffffffffffffffffffffffffffffffffffff1916827bffffffffffffffffffffffffffffffffffffffffffffffffffffffff191614806104ac57507f0e89341c000000000000000000000000000000000000000000000000000000007bffffffffffffffffffffffffffffffffffffffffffffffffffffffff1916827bffffffffffffffffffffffffffffffffffffffffffffffffffffffff1916145b806104bc57506104bb82610d7c565b5b9050919050565b6104cb610de6565b73ffffffffffffffffffffffffffffffffffffffff166104e9610a72565b73ffffffffffffffffffffffffffffffffffffffff161461053f576040517f08c379a000000000000000000000000000000000000000000000000000000000815260040161053690613331565b60405180910390fd5b61054881610dee565b50565b60606002805461055a90613671565b80601f016020809104026020016040519081016040528092919081815260200182805461058690613671565b80156105d35780601f106105a8576101008083540402835291602001916105d3565b820191906000526020600020905b8154815290600101906020018083116105b657829003601f168201915b50505050509050919050565b6105e7610de6565b73ffffffffffffffffffffffffffffffffffffffff16610605610a72565b73ffffffffffffffffffffffffffffffffffffffff161461065b576040517f08c379a000000000000000000000000000000000000000000000000000000000815260040161065290613331565b60405180910390fd5b61066784848484610e08565b50505050565b610675610de6565b73ffffffffffffffffffffffffffffffffffffffff168573ffffffffffffffffffffffffffffffffffffffff1614806106bb57506106ba856106b5610de6565b610ab2565b5b6106fa576040517f08c379a00000000000000000000000000000000000000000000000000000000081526004016106f1906132d1565b60405180910390fd5b6107078585858585611081565b5050505050565b60608151835114610754576040517f08c379a000000000000000000000000000000000000000000000000000000000815260040161074b90613371565b60405180910390fd5b6000835167ffffffffffffffff811115610797577f4e487b7100000000000000000000000000000000000000000000000000000000600052604160045260246000fd5b6040519080825280602002602001820160405280156107c55781602001602082028036833780820191505090505b50905060005b84518110156108b45761085e858281518110610810577f4e487b7100000000000000000000000000000000000000000000000000000000600052603260045260246000fd5b6020026020010151858381518110610851577f4e487b7100000000000000000000000000000000000000000000000000000000600052603260045260246000fd5b6020026020010151610318565b828281518110610897577f4e487b7100000000000000000000000000000000000000000000000000000000600052603260045260246000fd5b602002602001018181525050806108ad906136d4565b90506107cb565b508091505092915050565b6108c7610de6565b73ffffffffffffffffffffffffffffffffffffffff168373ffffffffffffffffffffffffffffffffffffffff16148061090d575061090c83610907610de6565b610ab2565b5b61094c576040517f08c379a000000000000000000000000000000000000000000000000000000000815260040161094390613291565b60405180910390fd5b6109578383836113ef565b505050565b610964610de6565b73ffffffffffffffffffffffffffffffffffffffff16610982610a72565b73ffffffffffffffffffffffffffffffffffffffff16146109d8576040517f08c379a00000000000000000000000000000000000000000000000000000000081526004016109cf90613331565b60405180910390fd5b6109e2600061170a565b565b6109ec610de6565b73ffffffffffffffffffffffffffffffffffffffff16610a0a610a72565b73ffffffffffffffffffffffffffffffffffffffff1614610a60576040517f08c379a0000000000000000000000000000000000000000000000000000000008152600401610a5790613331565b60405180910390fd5b610a6c848484846117d0565b50505050565b6000600360009054906101000a900473ffffffffffffffffffffffffffffffffffffffff16905090565b610aae610aa7610de6565b8383611981565b5050565b6000600160008473ffffffffffffffffffffffffffffffffffffffff1673ffffffffffffffffffffffffffffffffffffffff16815260200190815260200160002060008373ffffffffffffffffffffffffffffffffffffffff1673ffffffffffffffffffffffffffffffffffffffff16815260200190815260200160002060009054906101000a900460ff16905092915050565b610b4e610de6565b73ffffffffffffffffffffffffffffffffffffffff168573ffffffffffffffffffffffffffffffffffffffff161480610b945750610b9385610b8e610de6565b610ab2565b5b610bd3576040517f08c379a0000000000000000000000000000000000000000000000000000000008152600401610bca90613291565b60405180910390fd5b610be08585858585611aee565b5050505050565b610bef610de6565b73ffffffffffffffffffffffffffffffffffffffff16610c0d610a72565b73ffffffffffffffffffffffffffffffffffffffff1614610c63576040517f08c379a0000000000000000000000000000000000000000000000000000000008152600401610c5a90613331565b60405180910390fd5b600073ffffffffffffffffffffffffffffffffffffffff168173ffffffffffffffffffffffffffffffffffffffff161415610cd3576040517f08c379a0000000000000000000000000000000000000000000000000000000008152600401610cca90613251565b60405180910390fd5b610cdc8161170a565b50565b610ce7610de6565b73ffffffffffffffffffffffffffffffffffffffff168373ffffffffffffffffffffffffffffffffffffffff161480610d2d5750610d2c83610d27610de6565b610ab2565b5b610d6c576040517f08c379a0000000000000000000000000000000000000000000000000000000008152600401610d6390613291565b60405180910390fd5b610d77838383611d8a565b505050565b60007f01ffc9a7000000000000000000000000000000000000000000000000000000007bffffffffffffffffffffffffffffffffffffffffffffffffffffffff1916827bffffffffffffffffffffffffffffffffffffffffffffffffffffffff1916149050919050565b600033905090565b8060029080519060200190610e049291906124fe565b5050565b600073ffffffffffffffffffffffffffffffffffffffff168473ffffffffffffffffffffffffffffffffffffffff161415610e78576040517f08c379a0000000000000000000000000000000000000000000000000000000008152600401610e6f906133b1565b60405180910390fd5b8151835114610ebc576040517f08c379a0000000000000000000000000000000000000000000000000000000008152600401610eb390613391565b60405180910390fd5b6000610ec6610de6565b9050610ed781600087878787611fd1565b60005b8451811015610fdc57838181518110610f1c577f4e487b7100000000000000000000000000000000000000000000000000000000600052603260045260246000fd5b6020026020010151600080878481518110610f60577f4e487b7100000000000000000000000000000000000000000000000000000000600052603260045260246000fd5b6020026020010151815260200190815260200160002060008873ffffffffffffffffffffffffffffffffffffffff1673ffffffffffffffffffffffffffffffffffffffff1681526020019081526020016000206000828254610fc29190613565565b925050819055508080610fd4906136d4565b915050610eda565b508473ffffffffffffffffffffffffffffffffffffffff16600073ffffffffffffffffffffffffffffffffffffffff168273ffffffffffffffffffffffffffffffffffffffff167f4a39dc06d4c0dbc64b70af90fd698a233a518aa5d07e595d983b8c0526c8f7fb878760405161105492919061317d565b60405180910390a461106b8160008787878761203f565b61107a81600087878787612047565b5050505050565b81518351146110c5576040517f08c379a00000000000000000000000000000000000000000000000000000000081526004016110bc90613391565b60405180910390fd5b600073ffffffffffffffffffffffffffffffffffffffff168473ffffffffffffffffffffffffffffffffffffffff161415611135576040517f08c379a000000000000000000000000000000000000000000000000000000000815260040161112c906132b1565b60405180910390fd5b600061113f610de6565b905061114f818787878787611fd1565b60005b845181101561134c576000858281518110611196577f4e487b7100000000000000000000000000000000000000000000000000000000600052603260045260246000fd5b6020026020010151905060008583815181106111db577f4e487b7100000000000000000000000000000000000000000000000000000000600052603260045260246000fd5b60200260200101519050600080600084815260200190815260200160002060008b73ffffffffffffffffffffffffffffffffffffffff1673ffffffffffffffffffffffffffffffffffffffff1681526020019081526020016000205490508181101561127c576040517f08c379a000000000000000000000000000000000000000000000000000000000815260040161127390613311565b60405180910390fd5b81810360008085815260200190815260200160002060008c73ffffffffffffffffffffffffffffffffffffffff1673ffffffffffffffffffffffffffffffffffffffff168152602001908152602001600020819055508160008085815260200190815260200160002060008b73ffffffffffffffffffffffffffffffffffffffff1673ffffffffffffffffffffffffffffffffffffffff16815260200190815260200160002060008282546113319190613565565b9250508190555050505080611345906136d4565b9050611152565b508473ffffffffffffffffffffffffffffffffffffffff168673ffffffffffffffffffffffffffffffffffffffff168273ffffffffffffffffffffffffffffffffffffffff167f4a39dc06d4c0dbc64b70af90fd698a233a518aa5d07e595d983b8c0526c8f7fb87876040516113c392919061317d565b60405180910390a46113d981878787878761203f565b6113e7818787878787612047565b505050505050565b600073ffffffffffffffffffffffffffffffffffffffff168373ffffffffffffffffffffffffffffffffffffffff16141561145f576040517f08c379a0000000000000000000000000000000000000000000000000000000008152600401611456906132f1565b60405180910390fd5b80518251146114a3576040517f08c379a000000000000000000000000000000000000000000000000000000000815260040161149a90613391565b60405180910390fd5b60006114ad610de6565b90506114cd81856000868660405180602001604052806000815250611fd1565b60005b8351811015611666576000848281518110611514577f4e487b7100000000000000000000000000000000000000000000000000000000600052603260045260246000fd5b602002602001015190506000848381518110611559577f4e487b7100000000000000000000000000000000000000000000000000000000600052603260045260246000fd5b60200260200101519050600080600084815260200190815260200160002060008973ffffffffffffffffffffffffffffffffffffffff1673ffffffffffffffffffffffffffffffffffffffff168152602001908152602001600020549050818110156115fa576040517f08c379a00000000000000000000000000000000000000000000000000000000081526004016115f190613271565b60405180910390fd5b81810360008085815260200190815260200160002060008a73ffffffffffffffffffffffffffffffffffffffff1673ffffffffffffffffffffffffffffffffffffffff16815260200190815260200160002081905550505050808061165e906136d4565b9150506114d0565b50600073ffffffffffffffffffffffffffffffffffffffff168473ffffffffffffffffffffffffffffffffffffffff168273ffffffffffffffffffffffffffffffffffffffff167f4a39dc06d4c0dbc64b70af90fd698a233a518aa5d07e595d983b8c0526c8f7fb86866040516116de92919061317d565b60405180910390a46117048185600086866040518060200160405280600081525061203f565b50505050565b6000600360009054906101000a900473ffffffffffffffffffffffffffffffffffffffff16905081600360006101000a81548173ffffffffffffffffffffffffffffffffffffffff021916908373ffffffffffffffffffffffffffffffffffffffff1602179055508173ffffffffffffffffffffffffffffffffffffffff168173ffffffffffffffffffffffffffffffffffffffff167f8be0079c531659141344cd1fd0a4f28419497f9722a3daafe3b4186f6b6457e060405160405180910390a35050565b600073ffffffffffffffffffffffffffffffffffffffff168473ffffffffffffffffffffffffffffffffffffffff161415611840576040517f08c379a0000000000000000000000000000000000000000000000000000000008152600401611837906133b1565b60405180910390fd5b600061184a610de6565b905060006118578561222e565b905060006118648561222e565b905061187583600089858589611fd1565b8460008088815260200190815260200160002060008973ffffffffffffffffffffffffffffffffffffffff1673ffffffffffffffffffffffffffffffffffffffff16815260200190815260200160002060008282546118d49190613565565b925050819055508673ffffffffffffffffffffffffffffffffffffffff16600073ffffffffffffffffffffffffffffffffffffffff168473ffffffffffffffffffffffffffffffffffffffff167fc3d58168c5ae7397731d063d5bbf3d657854427343f4c083240f7aacaa2d0f6289896040516119529291906133ec565b60405180910390a46119698360008985858961203f565b611978836000898989896122f4565b50505050505050565b8173ffffffffffffffffffffffffffffffffffffffff168373ffffffffffffffffffffffffffffffffffffffff1614156119f0576040517f08c379a00000000000000000000000000000000000000000000000000000000081526004016119e790613351565b60405180910390fd5b80600160008573ffffffffffffffffffffffffffffffffffffffff1673ffffffffffffffffffffffffffffffffffffffff16815260200190815260200160002060008473ffffffffffffffffffffffffffffffffffffffff1673ffffffffffffffffffffffffffffffffffffffff16815260200190815260200160002060006101000a81548160ff0219169083151502179055508173ffffffffffffffffffffffffffffffffffffffff168373ffffffffffffffffffffffffffffffffffffffff167f17307eab39ab6107e8899845ad3d59bd9653f200f220920489ca2b5937696c3183604051611ae191906131b4565b60405180910390a3505050565b600073ffffffffffffffffffffffffffffffffffffffff168473ffffffffffffffffffffffffffffffffffffffff161415611b5e576040517f08c379a0000000000000000000000000000000000000000000000000000000008152600401611b55906132b1565b60405180910390fd5b6000611b68610de6565b90506000611b758561222e565b90506000611b828561222e565b9050611b92838989858589611fd1565b600080600088815260200190815260200160002060008a73ffffffffffffffffffffffffffffffffffffffff1673ffffffffffffffffffffffffffffffffffffffff16815260200190815260200160002054905085811015611c29576040517f08c379a0000000000000000000000000000000000000000000000000000000008152600401611c2090613311565b60405180910390fd5b85810360008089815260200190815260200160002060008b73ffffffffffffffffffffffffffffffffffffffff1673ffffffffffffffffffffffffffffffffffffffff168152602001908152602001600020819055508560008089815260200190815260200160002060008a73ffffffffffffffffffffffffffffffffffffffff1673ffffffffffffffffffffffffffffffffffffffff1681526020019081526020016000206000828254611cde9190613565565b925050819055508773ffffffffffffffffffffffffffffffffffffffff168973ffffffffffffffffffffffffffffffffffffffff168573ffffffffffffffffffffffffffffffffffffffff167fc3d58168c5ae7397731d063d5bbf3d657854427343f4c083240f7aacaa2d0f628a8a604051611d5b9291906133ec565b60405180910390a4611d71848a8a86868a61203f565b611d7f848a8a8a8a8a6122f4565b505050505050505050565b600073ffffffffffffffffffffffffffffffffffffffff168373ffffffffffffffffffffffffffffffffffffffff161415611dfa576040517f08c379a0000000000000000000000000000000000000000000000000000000008152600401611df1906132f1565b60405180910390fd5b6000611e04610de6565b90506000611e118461222e565b90506000611e1e8461222e565b9050611e3e83876000858560405180602001604052806000815250611fd1565b600080600087815260200190815260200160002060008873ffffffffffffffffffffffffffffffffffffffff1673ffffffffffffffffffffffffffffffffffffffff16815260200190815260200160002054905084811015611ed5576040517f08c379a0000000000000000000000000000000000000000000000000000000008152600401611ecc90613271565b60405180910390fd5b84810360008088815260200190815260200160002060008973ffffffffffffffffffffffffffffffffffffffff1673ffffffffffffffffffffffffffffffffffffffff16815260200190815260200160002081905550600073ffffffffffffffffffffffffffffffffffffffff168773ffffffffffffffffffffffffffffffffffffffff168573ffffffffffffffffffffffffffffffffffffffff167fc3d58168c5ae7397731d063d5bbf3d657854427343f4c083240f7aacaa2d0f628989604051611fa29291906133ec565b60405180910390a4611fc88488600086866040518060200160405280600081525061203f565b50505050505050565b600073ffffffffffffffffffffffffffffffffffffffff168573ffffffffffffffffffffffffffffffffffffffff1614612037576040517fef7cdba900000000000000000000000000000000000000000000000000000000815260040160405180910390fd5b505050505050565b505050505050565b6120668473ffffffffffffffffffffffffffffffffffffffff166124db565b15612226578373ffffffffffffffffffffffffffffffffffffffff1663bc197c8187878686866040518663ffffffff1660e01b81526004016120ac959493929190613099565b602060405180830381600087803b1580156120c657600080fd5b505af19250505080156120f757506040513d601f19601f820116820180604052508101906120f49190612cba565b60015b61219d576121036137aa565b806308c379a014156121605750612118613c65565b806121235750612162565b806040517f08c379a000000000000000000000000000000000000000000000000000000000815260040161215791906131cf565b60405180910390fd5b505b6040517f08c379a0000000000000000000000000000000000000000000000000000000008152600401612194906131f1565b60405180910390fd5b63bc197c8160e01b7bffffffffffffffffffffffffffffffffffffffffffffffffffffffff1916817bffffffffffffffffffffffffffffffffffffffffffffffffffffffff191614612224576040517f08c379a000000000000000000000000000000000000000000000000000000000815260040161221b90613211565b60405180910390fd5b505b505050505050565b60606000600167ffffffffffffffff811115612273577f4e487b7100000000000000000000000000000000000000000000000000000000600052604160045260246000fd5b6040519080825280602002602001820160405280156122a15781602001602082028036833780820191505090505b50905082816000815181106122df577f4e487b7100000000000000000000000000000000000000000000000000000000600052603260045260246000fd5b60200260200101818152505080915050919050565b6123138473ffffffffffffffffffffffffffffffffffffffff166124db565b156124d3578373ffffffffffffffffffffffffffffffffffffffff1663f23a6e6187878686866040518663ffffffff1660e01b8152600401612359959493929190613101565b602060405180830381600087803b15801561237357600080fd5b505af19250505080156123a457506040513d601f19601f820116820180604052508101906123a19190612cba565b60015b61244a576123b06137aa565b806308c379a0141561240d57506123c5613c65565b806123d0575061240f565b806040517f08c379a000000000000000000000000000000000000000000000000000000000815260040161240491906131cf565b60405180910390fd5b505b6040517f08c379a0000000000000000000000000000000000000000000000000000000008152600401612441906131f1565b60405180910390fd5b63f23a6e6160e01b7bffffffffffffffffffffffffffffffffffffffffffffffffffffffff1916817bffffffffffffffffffffffffffffffffffffffffffffffffffffffff1916146124d1576040517f08c379a00000000000000000000000000000000000000000000000000000000081526004016124c890613211565b60405180910390fd5b505b505050505050565b6000808273ffffffffffffffffffffffffffffffffffffffff163b119050919050565b82805461250a90613671565b90600052602060002090601f01602090048101928261252c5760008555612573565b82601f1061254557805160ff1916838001178555612573565b82800160010185558215612573579182015b82811115612572578251825591602001919060010190612557565b5b5090506125809190612584565b5090565b5b8082111561259d576000816000905550600101612585565b5090565b60006125b46125af8461343a565b613415565b905080838252602082019050828560208602820111156125d357600080fd5b60005b8581101561260357816125e988826126f5565b8452602084019350602083019250506001810190506125d6565b5050509392505050565b600061262061261b84613466565b613415565b9050808382526020820190508285602086028201111561263f57600080fd5b60005b8581101561266f578161265588826127f1565b845260208401935060208301925050600181019050612642565b5050509392505050565b600061268c61268784613492565b613415565b9050828152602081018484840111156126a457600080fd5b6126af84828561362f565b509392505050565b60006126ca6126c5846134c3565b613415565b9050828152602081018484840111156126e257600080fd5b6126ed84828561362f565b509392505050565b60008135905061270481613cfb565b92915050565b600082601f83011261271b57600080fd5b813561272b8482602086016125a1565b91505092915050565b600082601f83011261274557600080fd5b813561275584826020860161260d565b91505092915050565b60008135905061276d81613d12565b92915050565b60008135905061278281613d29565b92915050565b60008151905061279781613d29565b92915050565b600082601f8301126127ae57600080fd5b81356127be848260208601612679565b91505092915050565b600082601f8301126127d857600080fd5b81356127e88482602086016126b7565b91505092915050565b60008135905061280081613d40565b92915050565b60006020828403121561281857600080fd5b6000612826848285016126f5565b91505092915050565b6000806040838503121561284257600080fd5b6000612850858286016126f5565b9250506020612861858286016126f5565b9150509250929050565b600080600080600060a0868803121561288357600080fd5b6000612891888289016126f5565b95505060206128a2888289016126f5565b945050604086013567ffffffffffffffff8111156128bf57600080fd5b6128cb88828901612734565b935050606086013567ffffffffffffffff8111156128e857600080fd5b6128f488828901612734565b925050608086013567ffffffffffffffff81111561291157600080fd5b61291d8882890161279d565b9150509295509295909350565b600080600080600060a0868803121561294257600080fd5b6000612950888289016126f5565b9550506020612961888289016126f5565b9450506040612972888289016127f1565b9350506060612983888289016127f1565b925050608086013567ffffffffffffffff8111156129a057600080fd5b6129ac8882890161279d565b9150509295509295909350565b6000806000606084860312156129ce57600080fd5b60006129dc868287016126f5565b935050602084013567ffffffffffffffff8111156129f957600080fd5b612a0586828701612734565b925050604084013567ffffffffffffffff811115612a2257600080fd5b612a2e86828701612734565b9150509250925092565b60008060008060808587031215612a4e57600080fd5b6000612a5c878288016126f5565b945050602085013567ffffffffffffffff811115612a7957600080fd5b612a8587828801612734565b935050604085013567ffffffffffffffff811115612aa257600080fd5b612aae87828801612734565b925050606085013567ffffffffffffffff811115612acb57600080fd5b612ad78782880161279d565b91505092959194509250565b60008060408385031215612af657600080fd5b6000612b04858286016126f5565b9250506020612b158582860161275e565b9150509250929050565b60008060408385031215612b3257600080fd5b6000612b40858286016126f5565b9250506020612b51858286016127f1565b9150509250929050565b600080600060608486031215612b7057600080fd5b6000612b7e868287016126f5565b9350506020612b8f868287016127f1565b9250506040612ba0868287016127f1565b9150509250925092565b60008060008060808587031215612bc057600080fd5b6000612bce878288016126f5565b9450506020612bdf878288016127f1565b9350506040612bf0878288016127f1565b925050606085013567ffffffffffffffff811115612c0d57600080fd5b612c198782880161279d565b91505092959194509250565b60008060408385031215612c3857600080fd5b600083013567ffffffffffffffff811115612c5257600080fd5b612c5e8582860161270a565b925050602083013567ffffffffffffffff811115612c7b57600080fd5b612c8785828601612734565b9150509250929050565b600060208284031215612ca357600080fd5b6000612cb184828501612773565b91505092915050565b600060208284031215612ccc57600080fd5b6000612cda84828501612788565b91505092915050565b600060208284031215612cf557600080fd5b600082013567ffffffffffffffff811115612d0f57600080fd5b612d1b848285016127c7565b91505092915050565b600060208284031215612d3657600080fd5b6000612d44848285016127f1565b91505092915050565b6000612d598383613060565b60208301905092915050565b612d6e816135bb565b82525050565b6000612d7f82613504565b612d898185613532565b9350612d94836134f4565b8060005b83811015612dc5578151612dac8882612d4d565b9750612db783613525565b925050600181019050612d98565b5085935050505092915050565b612ddb816135cd565b82525050565b6000612dec8261350f565b612df68185613543565b9350612e0681856020860161363e565b612e0f816137cc565b840191505092915050565b6000612e258261351a565b612e2f8185613554565b9350612e3f81856020860161363e565b612e48816137cc565b840191505092915050565b6000612e60603483613554565b9150612e6b826137ea565b604082019050919050565b6000612e83602883613554565b9150612e8e82613839565b604082019050919050565b6000612ea6602b83613554565b9150612eb182613888565b604082019050919050565b6000612ec9602683613554565b9150612ed4826138d7565b604082019050919050565b6000612eec602483613554565b9150612ef782613926565b604082019050919050565b6000612f0f602983613554565b9150612f1a82613975565b604082019050919050565b6000612f32602583613554565b9150612f3d826139c4565b604082019050919050565b6000612f55603283613554565b9150612f6082613a13565b604082019050919050565b6000612f78602383613554565b9150612f8382613a62565b604082019050919050565b6000612f9b602a83613554565b9150612fa682613ab1565b604082019050919050565b6000612fbe602083613554565b9150612fc982613b00565b602082019050919050565b6000612fe1602983613554565b9150612fec82613b29565b604082019050919050565b6000613004602983613554565b915061300f82613b78565b604082019050919050565b6000613027602883613554565b915061303282613bc7565b604082019050919050565b600061304a602183613554565b915061305582613c16565b604082019050919050565b61306981613625565b82525050565b61307881613625565b82525050565b60006020820190506130936000830184612d65565b92915050565b600060a0820190506130ae6000830188612d65565b6130bb6020830187612d65565b81810360408301526130cd8186612d74565b905081810360608301526130e18185612d74565b905081810360808301526130f58184612de1565b90509695505050505050565b600060a0820190506131166000830188612d65565b6131236020830187612d65565b613130604083018661306f565b61313d606083018561306f565b818103608083015261314f8184612de1565b90509695505050505050565b600060208201905081810360008301526131758184612d74565b905092915050565b600060408201905081810360008301526131978185612d74565b905081810360208301526131ab8184612d74565b90509392505050565b60006020820190506131c96000830184612dd2565b92915050565b600060208201905081810360008301526131e98184612e1a565b905092915050565b6000602082019050818103600083015261320a81612e53565b9050919050565b6000602082019050818103600083015261322a81612e76565b9050919050565b6000602082019050818103600083015261324a81612e99565b9050919050565b6000602082019050818103600083015261326a81612ebc565b9050919050565b6000602082019050818103600083015261328a81612edf565b9050919050565b600060208201905081810360008301526132aa81612f02565b9050919050565b600060208201905081810360008301526132ca81612f25565b9050919050565b600060208201905081810360008301526132ea81612f48565b9050919050565b6000602082019050818103600083015261330a81612f6b565b9050919050565b6000602082019050818103600083015261332a81612f8e565b9050919050565b6000602082019050818103600083015261334a81612fb1565b9050919050565b6000602082019050818103600083015261336a81612fd4565b9050919050565b6000602082019050818103600083015261338a81612ff7565b9050919050565b600060208201905081810360008301526133aa8161301a565b9050919050565b600060208201905081810360008301526133ca8161303d565b9050919050565b60006020820190506133e6600083018461306f565b92915050565b6000604082019050613401600083018561306f565b61340e602083018461306f565b9392505050565b600061341f613430565b905061342b82826136a3565b919050565b6000604051905090565b600067ffffffffffffffff8211156134555761345461377b565b5b602082029050602081019050919050565b600067ffffffffffffffff8211156134815761348061377b565b5b602082029050602081019050919050565b600067ffffffffffffffff8211156134ad576134ac61377b565b5b6134b6826137cc565b9050602081019050919050565b600067ffffffffffffffff8211156134de576134dd61377b565b5b6134e7826137cc565b9050602081019050919050565b6000819050602082019050919050565b600081519050919050565b600081519050919050565b600081519050919050565b6000602082019050919050565b600082825260208201905092915050565b600082825260208201905092915050565b600082825260208201905092915050565b600061357082613625565b915061357b83613625565b9250827fffffffffffffffffffffffffffffffffffffffffffffffffffffffffffffffff038211156135b0576135af61371d565b5b828201905092915050565b60006135c682613605565b9050919050565b60008115159050919050565b60007fffffffff0000000000000000000000000000000000000000000000000000000082169050919050565b600073ffffffffffffffffffffffffffffffffffffffff82169050919050565b6000819050919050565b82818337600083830152505050565b60005b8381101561365c578082015181840152602081019050613641565b8381111561366b576000848401525b50505050565b6000600282049050600182168061368957607f821691505b6020821081141561369d5761369c61374c565b5b50919050565b6136ac826137cc565b810181811067ffffffffffffffff821117156136cb576136ca61377b565b5b80604052505050565b60006136df82613625565b91507fffffffffffffffffffffffffffffffffffffffffffffffffffffffffffffffff8214156137125761371161371d565b5b600182019050919050565b7f4e487b7100000000000000000000000000000000000000000000000000000000600052601160045260246000fd5b7f4e487b7100000000000000000000000000000000000000000000000000000000600052602260045260246000fd5b7f4e487b7100000000000000000000000000000000000000000000000000000000600052604160045260246000fd5b600060033d11156137c95760046000803e6137c66000516137dd565b90505b90565b6000601f19601f8301169050919050565b60008160e01c9050919050565b7f455243313135353a207472616e7366657220746f206e6f6e204552433131353560008201527f526563656976657220696d706c656d656e746572000000000000000000000000602082015250565b7f455243313135353a204552433131353552656365697665722072656a6563746560008201527f6420746f6b656e73000000000000000000000000000000000000000000000000602082015250565b7f455243313135353a2062616c616e636520717565727920666f7220746865207a60008201527f65726f2061646472657373000000000000000000000000000000000000000000602082015250565b7f4f776e61626c653a206e6577206f776e657220697320746865207a65726f206160008201527f6464726573730000000000000000000000000000000000000000000000000000602082015250565b7f455243313135353a206275726e20616d6f756e7420657863656564732062616c60008201527f616e636500000000000000000000000000000000000000000000000000000000602082015250565b7f455243313135353a2063616c6c6572206973206e6f74206f776e6572206e6f7260008201527f20617070726f7665640000000000000000000000000000000000000000000000602082015250565b7f455243313135353a207472616e7366657220746f20746865207a65726f20616460008201527f6472657373000000000000000000000000000000000000000000000000000000602082015250565b7f455243313135353a207472616e736665722063616c6c6572206973206e6f742060008201527f6f776e6572206e6f7220617070726f7665640000000000000000000000000000602082015250565b7f455243313135353a206275726e2066726f6d20746865207a65726f206164647260008201527f6573730000000000000000000000000000000000000000000000000000000000602082015250565b7f455243313135353a20696e73756666696369656e742062616c616e636520666f60008201527f72207472616e7366657200000000000000000000000000000000000000000000602082015250565b7f4f776e61626c653a2063616c6c6572206973206e6f7420746865206f776e6572600082015250565b7f455243313135353a2073657474696e6720617070726f76616c2073746174757360008201527f20666f722073656c660000000000000000000000000000000000000000000000602082015250565b7f455243313135353a206163636f756e747320616e6420696473206c656e67746860008201527f206d69736d617463680000000000000000000000000000000000000000000000602082015250565b7f455243313135353a2069647320616e6420616d6f756e7473206c656e6774682060008201527f6d69736d61746368000000000000000000000000000000000000000000000000602082015250565b7f455243313135353a206d696e7420746f20746865207a65726f2061646472657360008201527f7300000000000000000000000000000000000000000000000000000000000000602082015250565b600060443d1015613c7557613cf8565b613c7d613430565b60043d036004823e80513d602482011167ffffffffffffffff82111715613ca5575050613cf8565b808201805167ffffffffffffffff811115613cc35750505050613cf8565b80602083010160043d038501811115613ce0575050505050613cf8565b613cef826020018501866136a3565b82955050505050505b90565b613d04816135bb565b8114613d0f57600080fd5b50565b613d1b816135cd565b8114613d2657600080fd5b50565b613d32816135d9565b8114613d3d57600080fd5b50565b613d4981613625565b8114613d5457600080fd5b5056fea2646970667358221220a34965895caae8907baa6f7b45c8afa0c163035b0155a0d195b60e9395cc266964736f6c63430008040033",
  "devdoc": {
    "kind": "dev",
    "methods": {
      "balanceOf(address,uint256)": {
        "details": "See {IERC1155-balanceOf}. Requirements: - `account` cannot be the zero address."
      },
      "balanceOfBatch(address[],uint256[])": {
        "details": "See {IERC1155-balanceOfBatch}. Requirements: - `accounts` and `ids` must have the same length."
      },
      "isApprovedForAll(address,address)": {
        "details": "See {IERC1155-isApprovedForAll}."
      },
      "owner()": {
        "details": "Returns the address of the current owner."
      },
      "renounceOwnership()": {
        "details": "Leaves the contract without owner. It will not be possible to call `onlyOwner` functions anymore. Can only be called by the current owner. NOTE: Renouncing ownership will leave the contract without an owner, thereby removing any functionality that is only available to the owner."
      },
      "safeBatchTransferFrom(address,address,uint256[],uint256[],bytes)": {
        "details": "See {IERC1155-safeBatchTransferFrom}."
      },
      "safeTransferFrom(address,address,uint256,uint256,bytes)": {
        "details": "See {IERC1155-safeTransferFrom}."
      },
      "setApprovalForAll(address,bool)": {
        "details": "See {IERC1155-setApprovalForAll}."
      },
      "supportsInterface(bytes4)": {
        "details": "See {IERC165-supportsInterface}."
      },
      "transferOwnership(address)": {
        "details": "Transfers ownership of the contract to a new account (`newOwner`). Can only be called by the current owner."
      },
      "uri(uint256)": {
        "details": "See {IERC1155MetadataURI-uri}. This implementation returns the same URI for *all* token types. It relies on the token type ID substitution mechanism https://eips.ethereum.org/EIPS/eip-1155#metadata[defined in the EIP]. Clients calling this function must replace the `\\{id\\}` substring with the actual token type ID."
      }
    },
    "version": 1
  },
  "userdoc": {
    "kind": "user",
    "methods": {},
    "version": 1
  },
  "storageLayout": {
    "storage": [
      {
        "astId": 130,
        "contract": "contracts/Guild.sol:Guild",
        "label": "_balances",
        "offset": 0,
        "slot": "0",
        "type": "t_mapping(t_uint256,t_mapping(t_address,t_uint256))"
      },
      {
        "astId": 136,
        "contract": "contracts/Guild.sol:Guild",
        "label": "_operatorApprovals",
        "offset": 0,
        "slot": "1",
        "type": "t_mapping(t_address,t_mapping(t_address,t_bool))"
      },
      {
        "astId": 138,
        "contract": "contracts/Guild.sol:Guild",
        "label": "_uri",
        "offset": 0,
        "slot": "2",
        "type": "t_string_storage"
      },
      {
        "astId": 7,
        "contract": "contracts/Guild.sol:Guild",
        "label": "_owner",
        "offset": 0,
        "slot": "3",
        "type": "t_address"
      }
    ],
    "types": {
      "t_address": {
        "encoding": "inplace",
        "label": "address",
        "numberOfBytes": "20"
      },
      "t_bool": {
        "encoding": "inplace",
        "label": "bool",
        "numberOfBytes": "1"
      },
      "t_mapping(t_address,t_bool)": {
        "encoding": "mapping",
        "key": "t_address",
        "label": "mapping(address => bool)",
        "numberOfBytes": "32",
        "value": "t_bool"
      },
      "t_mapping(t_address,t_mapping(t_address,t_bool))": {
        "encoding": "mapping",
        "key": "t_address",
        "label": "mapping(address => mapping(address => bool))",
        "numberOfBytes": "32",
        "value": "t_mapping(t_address,t_bool)"
      },
      "t_mapping(t_address,t_uint256)": {
        "encoding": "mapping",
        "key": "t_address",
        "label": "mapping(address => uint256)",
        "numberOfBytes": "32",
        "value": "t_uint256"
      },
      "t_mapping(t_uint256,t_mapping(t_address,t_uint256))": {
        "encoding": "mapping",
        "key": "t_uint256",
        "label": "mapping(uint256 => mapping(address => uint256))",
        "numberOfBytes": "32",
        "value": "t_mapping(t_address,t_uint256)"
      },
      "t_string_storage": {
        "encoding": "bytes",
        "label": "string",
        "numberOfBytes": "32"
      },
      "t_uint256": {
        "encoding": "inplace",
        "label": "uint256",
        "numberOfBytes": "32"
      }
    }
  }
}