{
  "address": "0x5FbDB2315678afecb367f032d93F642f64180aa3",
  "abi": [
    {
      "inputs": [],
      "stateMutability": "nonpayable",
      "type": "constructor"
    },
    {
      "inputs": [],
      "name": "Soulbound__TransferNotAllowed",
      "type": "error"
    },
    {
      "anonymous": false,
      "inputs": [
        {
          "indexed": true,
          "internalType": "address",
          "name": "owner",
          "type": "address"
        },
        {
          "indexed": true,
          "internalType": "address",
          "name": "approved",
          "type": "address"
        },
        {
          "indexed": true,
          "internalType": "uint256",
          "name": "tokenId",
          "type": "uint256"
        }
      ],
      "name": "Approval",
      "type": "event"
    },
    {
      "anonymous": false,
      "inputs": [
        {
          "indexed": true,
          "internalType": "address",
          "name": "owner",
          "type": "address"
        },
        {
          "indexed": true,
          "internalType": "address",
          "name": "operator",
          "type": "address"
        },
        {
          "indexed": false,
          "internalType": "bool",
          "name": "approved",
          "type": "bool"
        }
      ],
      "name": "ApprovalForAll",
      "type": "event"
    },
    {
      "anonymous": false,
      "inputs": [
        {
          "indexed": true,
          "internalType": "address",
          "name": "previousOwner",
          "type": "address"
        },
        {
          "indexed": true,
          "internalType": "address",
          "name": "newOwner",
          "type": "address"
        }
      ],
      "name": "OwnershipTransferred",
      "type": "event"
    },
    {
      "anonymous": false,
      "inputs": [
        {
          "indexed": true,
          "internalType": "address",
          "name": "from",
          "type": "address"
        },
        {
          "indexed": true,
          "internalType": "address",
          "name": "to",
          "type": "address"
        },
        {
          "indexed": true,
          "internalType": "uint256",
          "name": "tokenId",
          "type": "uint256"
        }
      ],
      "name": "Transfer",
      "type": "event"
    },
    {
      "inputs": [
        {
          "internalType": "address",
          "name": "to",
          "type": "address"
        },
        {
          "internalType": "uint256",
          "name": "tokenId",
          "type": "uint256"
        }
      ],
      "name": "approve",
      "outputs": [],
      "stateMutability": "nonpayable",
      "type": "function"
    },
    {
      "inputs": [
        {
          "internalType": "address",
          "name": "owner",
          "type": "address"
        }
      ],
      "name": "balanceOf",
      "outputs": [
        {
          "internalType": "uint256",
          "name": "",
          "type": "uint256"
        }
      ],
      "stateMutability": "view",
      "type": "function"
    },
    {
      "inputs": [
        {
          "internalType": "uint256",
          "name": "tokenId",
          "type": "uint256"
        }
      ],
      "name": "getApproved",
      "outputs": [
        {
          "internalType": "address",
          "name": "",
          "type": "address"
        }
      ],
      "stateMutability": "view",
      "type": "function"
    },
    {
      "inputs": [
        {
          "internalType": "address",
          "name": "owner",
          "type": "address"
        },
        {
          "internalType": "address",
          "name": "operator",
          "type": "address"
        }
      ],
      "name": "isApprovedForAll",
      "outputs": [
        {
          "internalType": "bool",
          "name": "",
          "type": "bool"
        }
      ],
      "stateMutability": "view",
      "type": "function"
    },
    {
      "inputs": [
        {
          "internalType": "address",
          "name": "to",
          "type": "address"
        }
      ],
      "name": "mint",
      "outputs": [],
      "stateMutability": "nonpayable",
      "type": "function"
    },
    {
      "inputs": [],
      "name": "name",
      "outputs": [
        {
          "internalType": "string",
          "name": "",
          "type": "string"
        }
      ],
      "stateMutability": "view",
      "type": "function"
    },
    {
      "inputs": [],
      "name": "owner",
      "outputs": [
        {
          "internalType": "address",
          "name": "",
          "type": "address"
        }
      ],
      "stateMutability": "view",
      "type": "function"
    },
    {
      "inputs": [
        {
          "internalType": "uint256",
          "name": "tokenId",
          "type": "uint256"
        }
      ],
      "name": "ownerOf",
      "outputs": [
        {
          "internalType": "address",
          "name": "",
          "type": "address"
        }
      ],
      "stateMutability": "view",
      "type": "function"
    },
    {
      "inputs": [],
      "name": "renounceOwnership",
      "outputs": [],
      "stateMutability": "nonpayable",
      "type": "function"
    },
    {
      "inputs": [
        {
          "internalType": "address",
          "name": "from",
          "type": "address"
        },
        {
          "internalType": "address",
          "name": "to",
          "type": "address"
        },
        {
          "internalType": "uint256",
          "name": "tokenId",
          "type": "uint256"
        }
      ],
      "name": "safeTransferFrom",
      "outputs": [],
      "stateMutability": "nonpayable",
      "type": "function"
    },
    {
      "inputs": [
        {
          "internalType": "address",
          "name": "from",
          "type": "address"
        },
        {
          "internalType": "address",
          "name": "to",
          "type": "address"
        },
        {
          "internalType": "uint256",
          "name": "tokenId",
          "type": "uint256"
        },
        {
          "internalType": "bytes",
          "name": "_data",
          "type": "bytes"
        }
      ],
      "name": "safeTransferFrom",
      "outputs": [],
      "stateMutability": "nonpayable",
      "type": "function"
    },
    {
      "inputs": [
        {
          "internalType": "address",
          "name": "operator",
          "type": "address"
        },
        {
          "internalType": "bool",
          "name": "approved",
          "type": "bool"
        }
      ],
      "name": "setApprovalForAll",
      "outputs": [],
      "stateMutability": "nonpayable",
      "type": "function"
    },
    {
      "inputs": [
        {
          "internalType": "bytes4",
          "name": "interfaceId",
          "type": "bytes4"
        }
      ],
      "name": "supportsInterface",
      "outputs": [
        {
          "internalType": "bool",
          "name": "",
          "type": "bool"
        }
      ],
      "stateMutability": "view",
      "type": "function"
    },
    {
      "inputs": [],
      "name": "symbol",
      "outputs": [
        {
          "internalType": "string",
          "name": "",
          "type": "string"
        }
      ],
      "stateMutability": "view",
      "type": "function"
    },
    {
      "inputs": [
        {
          "internalType": "uint256",
          "name": "tokenId",
          "type": "uint256"
        }
      ],
      "name": "tokenURI",
      "outputs": [
        {
          "internalType": "string",
          "name": "",
          "type": "string"
        }
      ],
      "stateMutability": "view",
      "type": "function"
    },
    {
      "inputs": [
        {
          "internalType": "address",
          "name": "from",
          "type": "address"
        },
        {
          "internalType": "address",
          "name": "to",
          "type": "address"
        },
        {
          "internalType": "uint256",
          "name": "tokenId",
          "type": "uint256"
        }
      ],
      "name": "transferFrom",
      "outputs": [],
      "stateMutability": "nonpayable",
      "type": "function"
    },
    {
      "inputs": [
        {
          "internalType": "address",
          "name": "newOwner",
          "type": "address"
        }
      ],
      "name": "transferOwnership",
      "outputs": [],
      "stateMutability": "nonpayable",
      "type": "function"
    }
  ],
  "transactionHash": "0x9e186a0ed87ab442d716362de51243afa501fad898856906c6c52dcd43817653",
  "args": [],
  "numDeployments": 1,
  "solcInputHash": "ad8113ff828136a0bf13abd6bf1516fa",
  "bytecode": "0x60806040523480156200001157600080fd5b506040518060400160405280600981526020017f536f756c626f756e6400000000000000000000000000000000000000000000008152506040518060400160405280600281526020017f5342000000000000000000000000000000000000000000000000000000000000815250816000908051906020019062000096929190620001a6565b508060019080519060200190620000af929190620001a6565b505050620000d2620000c6620000d860201b60201c565b620000e060201b60201c565b620002bb565b600033905090565b6000600660009054906101000a900473ffffffffffffffffffffffffffffffffffffffff16905081600660006101000a81548173ffffffffffffffffffffffffffffffffffffffff021916908373ffffffffffffffffffffffffffffffffffffffff1602179055508173ffffffffffffffffffffffffffffffffffffffff168173ffffffffffffffffffffffffffffffffffffffff167f8be0079c531659141344cd1fd0a4f28419497f9722a3daafe3b4186f6b6457e060405160405180910390a35050565b828054620001b49062000256565b90600052602060002090601f016020900481019282620001d8576000855562000224565b82601f10620001f357805160ff191683800117855562000224565b8280016001018555821562000224579182015b828111156200022357825182559160200191906001019062000206565b5b50905062000233919062000237565b5090565b5b808211156200025257600081600090555060010162000238565b5090565b600060028204905060018216806200026f57607f821691505b602082108114156200028657620002856200028c565b5b50919050565b7f4e487b7100000000000000000000000000000000000000000000000000000000600052602260045260246000fd5b612b8c80620002cb6000396000f3fe608060405234801561001057600080fd5b506004361061010b5760003560e01c806370a08231116100a2578063a22cb46511610071578063a22cb465146102a4578063b88d4fde146102c0578063c87b56dd146102dc578063e985e9c51461030c578063f2fde38b1461033c5761010b565b806370a082311461022e578063715018a61461025e5780638da5cb5b1461026857806395d89b41146102865761010b565b806323b872dd116100de57806323b872dd146101aa57806342842e0e146101c65780636352211e146101e25780636a627842146102125761010b565b806301ffc9a71461011057806306fdde0314610140578063081812fc1461015e578063095ea7b31461018e575b600080fd5b61012a60048036038101906101259190611c90565b610358565b6040516101379190612096565b60405180910390f35b61014861043a565b60405161015591906120b1565b60405180910390f35b61017860048036038101906101739190611ce2565b6104cc565b604051610185919061202f565b60405180910390f35b6101a860048036038101906101a39190611c54565b610551565b005b6101c460048036038101906101bf9190611b4e565b610669565b005b6101e060048036038101906101db9190611b4e565b6106c9565b005b6101fc60048036038101906101f79190611ce2565b6106e9565b604051610209919061202f565b60405180910390f35b61022c60048036038101906102279190611ae9565b61079b565b005b61024860048036038101906102439190611ae9565b61083e565b60405161025591906122d3565b60405180910390f35b6102666108f6565b005b61027061097e565b60405161027d919061202f565b60405180910390f35b61028e6109a8565b60405161029b91906120b1565b60405180910390f35b6102be60048036038101906102b99190611c18565b610a3a565b005b6102da60048036038101906102d59190611b9d565b610a50565b005b6102f660048036038101906102f19190611ce2565b610ab2565b60405161030391906120b1565b60405180910390f35b61032660048036038101906103219190611b12565b610b59565b6040516103339190612096565b60405180910390f35b61035660048036038101906103519190611ae9565b610bed565b005b60007f80ac58cd000000000000000000000000000000000000000000000000000000007bffffffffffffffffffffffffffffffffffffffffffffffffffffffff1916827bffffffffffffffffffffffffffffffffffffffffffffffffffffffff1916148061042357507f5b5e139f000000000000000000000000000000000000000000000000000000007bffffffffffffffffffffffffffffffffffffffffffffffffffffffff1916827bffffffffffffffffffffffffffffffffffffffffffffffffffffffff1916145b80610433575061043282610ce5565b5b9050919050565b606060008054610449906124f8565b80601f0160208091040260200160405190810160405280929190818152602001828054610475906124f8565b80156104c25780601f10610497576101008083540402835291602001916104c2565b820191906000526020600020905b8154815290600101906020018083116104a557829003601f168201915b5050505050905090565b60006104d782610d4f565b610516576040517f08c379a000000000000000000000000000000000000000000000000000000000815260040161050d90612233565b60405180910390fd5b6004600083815260200190815260200160002060009054906101000a900473ffffffffffffffffffffffffffffffffffffffff169050919050565b600061055c826106e9565b90508073ffffffffffffffffffffffffffffffffffffffff168373ffffffffffffffffffffffffffffffffffffffff1614156105cd576040517f08c379a00000000000000000000000000000000000000000000000000000000081526004016105c490612293565b60405180910390fd5b8073ffffffffffffffffffffffffffffffffffffffff166105ec610dbb565b73ffffffffffffffffffffffffffffffffffffffff16148061061b575061061a81610615610dbb565b610b59565b5b61065a576040517f08c379a0000000000000000000000000000000000000000000000000000000008152600401610651906121b3565b60405180910390fd5b6106648383610dc3565b505050565b61067a610674610dbb565b82610e7c565b6106b9576040517f08c379a00000000000000000000000000000000000000000000000000000000081526004016106b0906122b3565b60405180910390fd5b6106c4838383610f5a565b505050565b6106e483838360405180602001604052806000815250610a50565b505050565b6000806002600084815260200190815260200160002060009054906101000a900473ffffffffffffffffffffffffffffffffffffffff169050600073ffffffffffffffffffffffffffffffffffffffff168173ffffffffffffffffffffffffffffffffffffffff161415610792576040517f08c379a0000000000000000000000000000000000000000000000000000000008152600401610789906121f3565b60405180910390fd5b80915050919050565b6107a3610dbb565b73ffffffffffffffffffffffffffffffffffffffff166107c161097e565b73ffffffffffffffffffffffffffffffffffffffff1614610817576040517f08c379a000000000000000000000000000000000000000000000000000000000815260040161080e90612253565b60405180910390fd5b610823816007546111c1565b600760008154809291906108369061255b565b919050555050565b60008073ffffffffffffffffffffffffffffffffffffffff168273ffffffffffffffffffffffffffffffffffffffff1614156108af576040517f08c379a00000000000000000000000000000000000000000000000000000000081526004016108a6906121d3565b60405180910390fd5b600360008373ffffffffffffffffffffffffffffffffffffffff1673ffffffffffffffffffffffffffffffffffffffff168152602001908152602001600020549050919050565b6108fe610dbb565b73ffffffffffffffffffffffffffffffffffffffff1661091c61097e565b73ffffffffffffffffffffffffffffffffffffffff1614610972576040517f08c379a000000000000000000000000000000000000000000000000000000000815260040161096990612253565b60405180910390fd5b61097c600061139b565b565b6000600660009054906101000a900473ffffffffffffffffffffffffffffffffffffffff16905090565b6060600180546109b7906124f8565b80601f01602080910402602001604051908101604052809291908181526020018280546109e3906124f8565b8015610a305780601f10610a0557610100808354040283529160200191610a30565b820191906000526020600020905b815481529060010190602001808311610a1357829003601f168201915b5050505050905090565b610a4c610a45610dbb565b8383611461565b5050565b610a61610a5b610dbb565b83610e7c565b610aa0576040517f08c379a0000000000000000000000000000000000000000000000000000000008152600401610a97906122b3565b60405180910390fd5b610aac848484846115ce565b50505050565b6060610abd82610d4f565b610afc576040517f08c379a0000000000000000000000000000000000000000000000000000000008152600401610af390612273565b60405180910390fd5b6000610b0661162a565b90506000815111610b265760405180602001604052806000815250610b51565b80610b3084611641565b604051602001610b4192919061200b565b6040516020818303038152906040525b915050919050565b6000600560008473ffffffffffffffffffffffffffffffffffffffff1673ffffffffffffffffffffffffffffffffffffffff16815260200190815260200160002060008373ffffffffffffffffffffffffffffffffffffffff1673ffffffffffffffffffffffffffffffffffffffff16815260200190815260200160002060009054906101000a900460ff16905092915050565b610bf5610dbb565b73ffffffffffffffffffffffffffffffffffffffff16610c1361097e565b73ffffffffffffffffffffffffffffffffffffffff1614610c69576040517f08c379a0000000000000000000000000000000000000000000000000000000008152600401610c6090612253565b60405180910390fd5b600073ffffffffffffffffffffffffffffffffffffffff168173ffffffffffffffffffffffffffffffffffffffff161415610cd9576040517f08c379a0000000000000000000000000000000000000000000000000000000008152600401610cd0906120f3565b60405180910390fd5b610ce28161139b565b50565b60007f01ffc9a7000000000000000000000000000000000000000000000000000000007bffffffffffffffffffffffffffffffffffffffffffffffffffffffff1916827bffffffffffffffffffffffffffffffffffffffffffffffffffffffff1916149050919050565b60008073ffffffffffffffffffffffffffffffffffffffff166002600084815260200190815260200160002060009054906101000a900473ffffffffffffffffffffffffffffffffffffffff1673ffffffffffffffffffffffffffffffffffffffff1614159050919050565b600033905090565b816004600083815260200190815260200160002060006101000a81548173ffffffffffffffffffffffffffffffffffffffff021916908373ffffffffffffffffffffffffffffffffffffffff160217905550808273ffffffffffffffffffffffffffffffffffffffff16610e36836106e9565b73ffffffffffffffffffffffffffffffffffffffff167f8c5be1e5ebec7d5bd14f71427d1e84f3dd0314c0f7b2291e5b200ac8c7c3b92560405160405180910390a45050565b6000610e8782610d4f565b610ec6576040517f08c379a0000000000000000000000000000000000000000000000000000000008152600401610ebd90612193565b60405180910390fd5b6000610ed1836106e9565b90508073ffffffffffffffffffffffffffffffffffffffff168473ffffffffffffffffffffffffffffffffffffffff161480610f135750610f128185610b59565b5b80610f5157508373ffffffffffffffffffffffffffffffffffffffff16610f39846104cc565b73ffffffffffffffffffffffffffffffffffffffff16145b91505092915050565b8273ffffffffffffffffffffffffffffffffffffffff16610f7a826106e9565b73ffffffffffffffffffffffffffffffffffffffff1614610fd0576040517f08c379a0000000000000000000000000000000000000000000000000000000008152600401610fc790612113565b60405180910390fd5b600073ffffffffffffffffffffffffffffffffffffffff168273ffffffffffffffffffffffffffffffffffffffff161415611040576040517f08c379a000000000000000000000000000000000000000000000000000000000815260040161103790612153565b60405180910390fd5b61104b8383836117ee565b611056600082610dc3565b6001600360008573ffffffffffffffffffffffffffffffffffffffff1673ffffffffffffffffffffffffffffffffffffffff16815260200190815260200160002060008282546110a6919061240e565b925050819055506001600360008473ffffffffffffffffffffffffffffffffffffffff1673ffffffffffffffffffffffffffffffffffffffff16815260200190815260200160002060008282546110fd9190612387565b92505081905550816002600083815260200190815260200160002060006101000a81548173ffffffffffffffffffffffffffffffffffffffff021916908373ffffffffffffffffffffffffffffffffffffffff160217905550808273ffffffffffffffffffffffffffffffffffffffff168473ffffffffffffffffffffffffffffffffffffffff167fddf252ad1be2c89b69c2b068fc378daa952ba7f163c4a11628f55a4df523b3ef60405160405180910390a46111bc838383611859565b505050565b600073ffffffffffffffffffffffffffffffffffffffff168273ffffffffffffffffffffffffffffffffffffffff161415611231576040517f08c379a000000000000000000000000000000000000000000000000000000000815260040161122890612213565b60405180910390fd5b61123a81610d4f565b1561127a576040517f08c379a000000000000000000000000000000000000000000000000000000000815260040161127190612133565b60405180910390fd5b611286600083836117ee565b6001600360008473ffffffffffffffffffffffffffffffffffffffff1673ffffffffffffffffffffffffffffffffffffffff16815260200190815260200160002060008282546112d69190612387565b92505081905550816002600083815260200190815260200160002060006101000a81548173ffffffffffffffffffffffffffffffffffffffff021916908373ffffffffffffffffffffffffffffffffffffffff160217905550808273ffffffffffffffffffffffffffffffffffffffff16600073ffffffffffffffffffffffffffffffffffffffff167fddf252ad1be2c89b69c2b068fc378daa952ba7f163c4a11628f55a4df523b3ef60405160405180910390a461139760008383611859565b5050565b6000600660009054906101000a900473ffffffffffffffffffffffffffffffffffffffff16905081600660006101000a81548173ffffffffffffffffffffffffffffffffffffffff021916908373ffffffffffffffffffffffffffffffffffffffff1602179055508173ffffffffffffffffffffffffffffffffffffffff168173ffffffffffffffffffffffffffffffffffffffff167f8be0079c531659141344cd1fd0a4f28419497f9722a3daafe3b4186f6b6457e060405160405180910390a35050565b8173ffffffffffffffffffffffffffffffffffffffff168373ffffffffffffffffffffffffffffffffffffffff1614156114d0576040517f08c379a00000000000000000000000000000000000000000000000000000000081526004016114c790612173565b60405180910390fd5b80600560008573ffffffffffffffffffffffffffffffffffffffff1673ffffffffffffffffffffffffffffffffffffffff16815260200190815260200160002060008473ffffffffffffffffffffffffffffffffffffffff1673ffffffffffffffffffffffffffffffffffffffff16815260200190815260200160002060006101000a81548160ff0219169083151502179055508173ffffffffffffffffffffffffffffffffffffffff168373ffffffffffffffffffffffffffffffffffffffff167f17307eab39ab6107e8899845ad3d59bd9653f200f220920489ca2b5937696c31836040516115c19190612096565b60405180910390a3505050565b6115d9848484610f5a565b6115e58484848461185e565b611624576040517f08c379a000000000000000000000000000000000000000000000000000000000815260040161161b906120d3565b60405180910390fd5b50505050565b606060405180602001604052806000815250905090565b60606000821415611689576040518060400160405280600181526020017f300000000000000000000000000000000000000000000000000000000000000081525090506117e9565b600082905060005b600082146116bb5780806116a49061255b565b915050600a826116b491906123dd565b9150611691565b60008167ffffffffffffffff8111156116fd577f4e487b7100000000000000000000000000000000000000000000000000000000600052604160045260246000fd5b6040519080825280601f01601f19166020018201604052801561172f5781602001600182028036833780820191505090505b5090505b600085146117e257600182611748919061240e565b9150600a8561175791906125a4565b60306117639190612387565b60f81b81838151811061179f577f4e487b7100000000000000000000000000000000000000000000000000000000600052603260045260246000fd5b60200101907effffffffffffffffffffffffffffffffffffffffffffffffffffffffffffff1916908160001a905350600a856117db91906123dd565b9450611733565b8093505050505b919050565b600073ffffffffffffffffffffffffffffffffffffffff168373ffffffffffffffffffffffffffffffffffffffff1614611854576040517f5db570fb00000000000000000000000000000000000000000000000000000000815260040160405180910390fd5b505050565b505050565b600061187f8473ffffffffffffffffffffffffffffffffffffffff166119f5565b156119e8578373ffffffffffffffffffffffffffffffffffffffff1663150b7a026118a8610dbb565b8786866040518563ffffffff1660e01b81526004016118ca949392919061204a565b602060405180830381600087803b1580156118e457600080fd5b505af192505050801561191557506040513d601f19601f820116820180604052508101906119129190611cb9565b60015b611998573d8060008114611945576040519150601f19603f3d011682016040523d82523d6000602084013e61194a565b606091505b50600081511415611990576040517f08c379a0000000000000000000000000000000000000000000000000000000008152600401611987906120d3565b60405180910390fd5b805181602001fd5b63150b7a0260e01b7bffffffffffffffffffffffffffffffffffffffffffffffffffffffff1916817bffffffffffffffffffffffffffffffffffffffffffffffffffffffff1916149150506119ed565b600190505b949350505050565b6000808273ffffffffffffffffffffffffffffffffffffffff163b119050919050565b6000611a2b611a2684612313565b6122ee565b905082815260208101848484011115611a4357600080fd5b611a4e8482856124b6565b509392505050565b600081359050611a6581612afa565b92915050565b600081359050611a7a81612b11565b92915050565b600081359050611a8f81612b28565b92915050565b600081519050611aa481612b28565b92915050565b600082601f830112611abb57600080fd5b8135611acb848260208601611a18565b91505092915050565b600081359050611ae381612b3f565b92915050565b600060208284031215611afb57600080fd5b6000611b0984828501611a56565b91505092915050565b60008060408385031215611b2557600080fd5b6000611b3385828601611a56565b9250506020611b4485828601611a56565b9150509250929050565b600080600060608486031215611b6357600080fd5b6000611b7186828701611a56565b9350506020611b8286828701611a56565b9250506040611b9386828701611ad4565b9150509250925092565b60008060008060808587031215611bb357600080fd5b6000611bc187828801611a56565b9450506020611bd287828801611a56565b9350506040611be387828801611ad4565b925050606085013567ffffffffffffffff811115611c0057600080fd5b611c0c87828801611aaa565b91505092959194509250565b60008060408385031215611c2b57600080fd5b6000611c3985828601611a56565b9250506020611c4a85828601611a6b565b9150509250929050565b60008060408385031215611c6757600080fd5b6000611c7585828601611a56565b9250506020611c8685828601611ad4565b9150509250929050565b600060208284031215611ca257600080fd5b6000611cb084828501611a80565b91505092915050565b600060208284031215611ccb57600080fd5b6000611cd984828501611a95565b91505092915050565b600060208284031215611cf457600080fd5b6000611d0284828501611ad4565b91505092915050565b611d1481612442565b82525050565b611d2381612454565b82525050565b6000611d3482612344565b611d3e818561235a565b9350611d4e8185602086016124c5565b611d5781612691565b840191505092915050565b6000611d6d8261234f565b611d77818561236b565b9350611d878185602086016124c5565b611d9081612691565b840191505092915050565b6000611da68261234f565b611db0818561237c565b9350611dc08185602086016124c5565b80840191505092915050565b6000611dd960328361236b565b9150611de4826126a2565b604082019050919050565b6000611dfc60268361236b565b9150611e07826126f1565b604082019050919050565b6000611e1f60258361236b565b9150611e2a82612740565b604082019050919050565b6000611e42601c8361236b565b9150611e4d8261278f565b602082019050919050565b6000611e6560248361236b565b9150611e70826127b8565b604082019050919050565b6000611e8860198361236b565b9150611e9382612807565b602082019050919050565b6000611eab602c8361236b565b9150611eb682612830565b604082019050919050565b6000611ece60388361236b565b9150611ed98261287f565b604082019050919050565b6000611ef1602a8361236b565b9150611efc826128ce565b604082019050919050565b6000611f1460298361236b565b9150611f1f8261291d565b604082019050919050565b6000611f3760208361236b565b9150611f428261296c565b602082019050919050565b6000611f5a602c8361236b565b9150611f6582612995565b604082019050919050565b6000611f7d60208361236b565b9150611f88826129e4565b602082019050919050565b6000611fa0602f8361236b565b9150611fab82612a0d565b604082019050919050565b6000611fc360218361236b565b9150611fce82612a5c565b604082019050919050565b6000611fe660318361236b565b9150611ff182612aab565b604082019050919050565b612005816124ac565b82525050565b60006120178285611d9b565b91506120238284611d9b565b91508190509392505050565b60006020820190506120446000830184611d0b565b92915050565b600060808201905061205f6000830187611d0b565b61206c6020830186611d0b565b6120796040830185611ffc565b818103606083015261208b8184611d29565b905095945050505050565b60006020820190506120ab6000830184611d1a565b92915050565b600060208201905081810360008301526120cb8184611d62565b905092915050565b600060208201905081810360008301526120ec81611dcc565b9050919050565b6000602082019050818103600083015261210c81611def565b9050919050565b6000602082019050818103600083015261212c81611e12565b9050919050565b6000602082019050818103600083015261214c81611e35565b9050919050565b6000602082019050818103600083015261216c81611e58565b9050919050565b6000602082019050818103600083015261218c81611e7b565b9050919050565b600060208201905081810360008301526121ac81611e9e565b9050919050565b600060208201905081810360008301526121cc81611ec1565b9050919050565b600060208201905081810360008301526121ec81611ee4565b9050919050565b6000602082019050818103600083015261220c81611f07565b9050919050565b6000602082019050818103600083015261222c81611f2a565b9050919050565b6000602082019050818103600083015261224c81611f4d565b9050919050565b6000602082019050818103600083015261226c81611f70565b9050919050565b6000602082019050818103600083015261228c81611f93565b9050919050565b600060208201905081810360008301526122ac81611fb6565b9050919050565b600060208201905081810360008301526122cc81611fd9565b9050919050565b60006020820190506122e86000830184611ffc565b92915050565b60006122f8612309565b9050612304828261252a565b919050565b6000604051905090565b600067ffffffffffffffff82111561232e5761232d612662565b5b61233782612691565b9050602081019050919050565b600081519050919050565b600081519050919050565b600082825260208201905092915050565b600082825260208201905092915050565b600081905092915050565b6000612392826124ac565b915061239d836124ac565b9250827fffffffffffffffffffffffffffffffffffffffffffffffffffffffffffffffff038211156123d2576123d16125d5565b5b828201905092915050565b60006123e8826124ac565b91506123f3836124ac565b92508261240357612402612604565b5b828204905092915050565b6000612419826124ac565b9150612424836124ac565b925082821015612437576124366125d5565b5b828203905092915050565b600061244d8261248c565b9050919050565b60008115159050919050565b60007fffffffff0000000000000000000000000000000000000000000000000000000082169050919050565b600073ffffffffffffffffffffffffffffffffffffffff82169050919050565b6000819050919050565b82818337600083830152505050565b60005b838110156124e35780820151818401526020810190506124c8565b838111156124f2576000848401525b50505050565b6000600282049050600182168061251057607f821691505b6020821081141561252457612523612633565b5b50919050565b61253382612691565b810181811067ffffffffffffffff8211171561255257612551612662565b5b80604052505050565b6000612566826124ac565b91507fffffffffffffffffffffffffffffffffffffffffffffffffffffffffffffffff821415612599576125986125d5565b5b600182019050919050565b60006125af826124ac565b91506125ba836124ac565b9250826125ca576125c9612604565b5b828206905092915050565b7f4e487b7100000000000000000000000000000000000000000000000000000000600052601160045260246000fd5b7f4e487b7100000000000000000000000000000000000000000000000000000000600052601260045260246000fd5b7f4e487b7100000000000000000000000000000000000000000000000000000000600052602260045260246000fd5b7f4e487b7100000000000000000000000000000000000000000000000000000000600052604160045260246000fd5b6000601f19601f8301169050919050565b7f4552433732313a207472616e7366657220746f206e6f6e20455243373231526560008201527f63656976657220696d706c656d656e7465720000000000000000000000000000602082015250565b7f4f776e61626c653a206e6577206f776e657220697320746865207a65726f206160008201527f6464726573730000000000000000000000000000000000000000000000000000602082015250565b7f4552433732313a207472616e736665722066726f6d20696e636f72726563742060008201527f6f776e6572000000000000000000000000000000000000000000000000000000602082015250565b7f4552433732313a20746f6b656e20616c7265616479206d696e74656400000000600082015250565b7f4552433732313a207472616e7366657220746f20746865207a65726f2061646460008201527f7265737300000000000000000000000000000000000000000000000000000000602082015250565b7f4552433732313a20617070726f766520746f2063616c6c657200000000000000600082015250565b7f4552433732313a206f70657261746f7220717565727920666f72206e6f6e657860008201527f697374656e7420746f6b656e0000000000000000000000000000000000000000602082015250565b7f4552433732313a20617070726f76652063616c6c6572206973206e6f74206f7760008201527f6e6572206e6f7220617070726f76656420666f7220616c6c0000000000000000602082015250565b7f4552433732313a2062616c616e636520717565727920666f7220746865207a6560008201527f726f206164647265737300000000000000000000000000000000000000000000602082015250565b7f4552433732313a206f776e657220717565727920666f72206e6f6e657869737460008201527f656e7420746f6b656e0000000000000000000000000000000000000000000000602082015250565b7f4552433732313a206d696e7420746f20746865207a65726f2061646472657373600082015250565b7f4552433732313a20617070726f76656420717565727920666f72206e6f6e657860008201527f697374656e7420746f6b656e0000000000000000000000000000000000000000602082015250565b7f4f776e61626c653a2063616c6c6572206973206e6f7420746865206f776e6572600082015250565b7f4552433732314d657461646174613a2055524920717565727920666f72206e6f60008201527f6e6578697374656e7420746f6b656e0000000000000000000000000000000000602082015250565b7f4552433732313a20617070726f76616c20746f2063757272656e74206f776e6560008201527f7200000000000000000000000000000000000000000000000000000000000000602082015250565b7f4552433732313a207472616e736665722063616c6c6572206973206e6f74206f60008201527f776e6572206e6f7220617070726f766564000000000000000000000000000000602082015250565b612b0381612442565b8114612b0e57600080fd5b50565b612b1a81612454565b8114612b2557600080fd5b50565b612b3181612460565b8114612b3c57600080fd5b50565b612b48816124ac565b8114612b5357600080fd5b5056fea2646970667358221220e80621a49d467812d078f4d0fe4f068d1fe5b6f0590a590bf4fd500a6a48c47164736f6c63430008040033",
  "devdoc": {
    "kind": "dev",
    "methods": {
      "approve(address,uint256)": {
        "details": "See {IERC721-approve}."
      },
      "balanceOf(address)": {
        "details": "See {IERC721-balanceOf}."
      },
      "getApproved(uint256)": {
        "details": "See {IERC721-getApproved}."
      },
      "isApprovedForAll(address,address)": {
        "details": "See {IERC721-isApprovedForAll}."
      },
      "name()": {
        "details": "See {IERC721Metadata-name}."
      },
      "owner()": {
        "details": "Returns the address of the current owner."
      },
      "ownerOf(uint256)": {
        "details": "See {IERC721-ownerOf}."
      },
      "renounceOwnership()": {
        "details": "Leaves the contract without owner. It will not be possible to call `onlyOwner` functions anymore. Can only be called by the current owner. NOTE: Renouncing ownership will leave the contract without an owner, thereby removing any functionality that is only available to the owner."
      },
      "safeTransferFrom(address,address,uint256)": {
        "details": "See {IERC721-safeTransferFrom}."
      },
      "safeTransferFrom(address,address,uint256,bytes)": {
        "details": "See {IERC721-safeTransferFrom}."
      },
      "setApprovalForAll(address,bool)": {
        "details": "See {IERC721-setApprovalForAll}."
      },
      "supportsInterface(bytes4)": {
        "details": "See {IERC165-supportsInterface}."
      },
      "symbol()": {
        "details": "See {IERC721Metadata-symbol}."
      },
      "tokenURI(uint256)": {
        "details": "See {IERC721Metadata-tokenURI}."
      },
      "transferFrom(address,address,uint256)": {
        "details": "See {IERC721-transferFrom}."
      },
      "transferOwnership(address)": {
        "details": "Transfers ownership of the contract to a new account (`newOwner`). Can only be called by the current owner."
      }
    },
    "version": 1
  },
  "userdoc": {
    "kind": "user",
    "methods": {},
    "version": 1
  },
  "storageLayout": {
    "storage": [
      {
        "astId": 130,
        "contract": "contracts/Soulbound.sol:Soulbound",
        "label": "_name",
        "offset": 0,
        "slot": "0",
        "type": "t_string_storage"
      },
      {
        "astId": 132,
        "contract": "contracts/Soulbound.sol:Soulbound",
        "label": "_symbol",
        "offset": 0,
        "slot": "1",
        "type": "t_string_storage"
      },
      {
        "astId": 136,
        "contract": "contracts/Soulbound.sol:Soulbound",
        "label": "_owners",
        "offset": 0,
        "slot": "2",
        "type": "t_mapping(t_uint256,t_address)"
      },
      {
        "astId": 140,
        "contract": "contracts/Soulbound.sol:Soulbound",
        "label": "_balances",
        "offset": 0,
        "slot": "3",
        "type": "t_mapping(t_address,t_uint256)"
      },
      {
        "astId": 144,
        "contract": "contracts/Soulbound.sol:Soulbound",
        "label": "_tokenApprovals",
        "offset": 0,
        "slot": "4",
        "type": "t_mapping(t_uint256,t_address)"
      },
      {
        "astId": 150,
        "contract": "contracts/Soulbound.sol:Soulbound",
        "label": "_operatorApprovals",
        "offset": 0,
        "slot": "5",
        "type": "t_mapping(t_address,t_mapping(t_address,t_bool))"
      },
      {
        "astId": 7,
        "contract": "contracts/Soulbound.sol:Soulbound",
        "label": "_owner",
        "offset": 0,
        "slot": "6",
        "type": "t_address"
      },
      {
        "astId": 1699,
        "contract": "contracts/Soulbound.sol:Soulbound",
        "label": "counter",
        "offset": 0,
        "slot": "7",
        "type": "t_uint256"
      }
    ],
    "types": {
      "t_address": {
        "encoding": "inplace",
        "label": "address",
        "numberOfBytes": "20"
      },
      "t_bool": {
        "encoding": "inplace",
        "label": "bool",
        "numberOfBytes": "1"
      },
      "t_mapping(t_address,t_bool)": {
        "encoding": "mapping",
        "key": "t_address",
        "label": "mapping(address => bool)",
        "numberOfBytes": "32",
        "value": "t_bool"
      },
      "t_mapping(t_address,t_mapping(t_address,t_bool))": {
        "encoding": "mapping",
        "key": "t_address",
        "label": "mapping(address => mapping(address => bool))",
        "numberOfBytes": "32",
        "value": "t_mapping(t_address,t_bool)"
      },
      "t_mapping(t_address,t_uint256)": {
        "encoding": "mapping",
        "key": "t_address",
        "label": "mapping(address => uint256)",
        "numberOfBytes": "32",
        "value": "t_uint256"
      },
      "t_mapping(t_uint256,t_address)": {
        "encoding": "mapping",
        "key": "t_uint256",
        "label": "mapping(uint256 => address)",
        "numberOfBytes": "32",
        "value": "t_address"
      },
      "t_string_storage": {
        "encoding": "bytes",
        "label": "string",
        "numberOfBytes": "32"
      },
      "t_uint256": {
        "encoding": "inplace",
        "label": "uint256",
        "numberOfBytes": "32"
      }
    }
  }
}