{
  "address": "0x5FbDB2315678afecb367f032d93F642f64180aa3",
  "abi": [
    {
      "inputs": [
        {
          "internalType": "string",
          "name": "_name",
          "type": "string"
        },
        {
          "internalType": "string",
          "name": "_symbol",
          "type": "string"
        }
      ],
      "stateMutability": "nonpayable",
      "type": "constructor"
    },
    {
      "inputs": [],
      "name": "Soulbound__TransferNotAllowed",
      "type": "error"
    },
    {
      "anonymous": false,
      "inputs": [
        {
          "indexed": true,
          "internalType": "address",
          "name": "owner",
          "type": "address"
        },
        {
          "indexed": true,
          "internalType": "address",
          "name": "approved",
          "type": "address"
        },
        {
          "indexed": true,
          "internalType": "uint256",
          "name": "tokenId",
          "type": "uint256"
        }
      ],
      "name": "Approval",
      "type": "event"
    },
    {
      "anonymous": false,
      "inputs": [
        {
          "indexed": true,
          "internalType": "address",
          "name": "owner",
          "type": "address"
        },
        {
          "indexed": true,
          "internalType": "address",
          "name": "operator",
          "type": "address"
        },
        {
          "indexed": false,
          "internalType": "bool",
          "name": "approved",
          "type": "bool"
        }
      ],
      "name": "ApprovalForAll",
      "type": "event"
    },
    {
      "anonymous": false,
      "inputs": [
        {
          "indexed": true,
          "internalType": "address",
          "name": "previousOwner",
          "type": "address"
        },
        {
          "indexed": true,
          "internalType": "address",
          "name": "newOwner",
          "type": "address"
        }
      ],
      "name": "OwnershipTransferred",
      "type": "event"
    },
    {
      "anonymous": false,
      "inputs": [
        {
          "indexed": true,
          "internalType": "address",
          "name": "from",
          "type": "address"
        },
        {
          "indexed": true,
          "internalType": "address",
          "name": "to",
          "type": "address"
        },
        {
          "indexed": true,
          "internalType": "uint256",
          "name": "tokenId",
          "type": "uint256"
        }
      ],
      "name": "Transfer",
      "type": "event"
    },
    {
      "inputs": [
        {
          "internalType": "address",
          "name": "to",
          "type": "address"
        },
        {
          "internalType": "uint256",
          "name": "tokenId",
          "type": "uint256"
        }
      ],
      "name": "approve",
      "outputs": [],
      "stateMutability": "nonpayable",
      "type": "function"
    },
    {
      "inputs": [
        {
          "internalType": "address",
          "name": "owner",
          "type": "address"
        }
      ],
      "name": "balanceOf",
      "outputs": [
        {
          "internalType": "uint256",
          "name": "",
          "type": "uint256"
        }
      ],
      "stateMutability": "view",
      "type": "function"
    },
    {
      "inputs": [
        {
          "internalType": "uint256",
          "name": "tokenId",
          "type": "uint256"
        }
      ],
      "name": "burn",
      "outputs": [],
      "stateMutability": "nonpayable",
      "type": "function"
    },
    {
      "inputs": [
        {
          "internalType": "uint256",
          "name": "tokenId",
          "type": "uint256"
        }
      ],
      "name": "getApproved",
      "outputs": [
        {
          "internalType": "address",
          "name": "",
          "type": "address"
        }
      ],
      "stateMutability": "view",
      "type": "function"
    },
    {
      "inputs": [
        {
          "internalType": "address",
          "name": "owner",
          "type": "address"
        },
        {
          "internalType": "address",
          "name": "operator",
          "type": "address"
        }
      ],
      "name": "isApprovedForAll",
      "outputs": [
        {
          "internalType": "bool",
          "name": "",
          "type": "bool"
        }
      ],
      "stateMutability": "view",
      "type": "function"
    },
    {
      "inputs": [],
      "name": "name",
      "outputs": [
        {
          "internalType": "string",
          "name": "",
          "type": "string"
        }
      ],
      "stateMutability": "view",
      "type": "function"
    },
    {
      "inputs": [],
      "name": "owner",
      "outputs": [
        {
          "internalType": "address",
          "name": "",
          "type": "address"
        }
      ],
      "stateMutability": "view",
      "type": "function"
    },
    {
      "inputs": [
        {
          "internalType": "uint256",
          "name": "tokenId",
          "type": "uint256"
        }
      ],
      "name": "ownerOf",
      "outputs": [
        {
          "internalType": "address",
          "name": "",
          "type": "address"
        }
      ],
      "stateMutability": "view",
      "type": "function"
    },
    {
      "inputs": [],
      "name": "renounceOwnership",
      "outputs": [],
      "stateMutability": "nonpayable",
      "type": "function"
    },
    {
      "inputs": [
        {
          "internalType": "address",
          "name": "to",
          "type": "address"
        },
        {
          "internalType": "string",
          "name": "uri",
          "type": "string"
        }
      ],
      "name": "safeMint",
      "outputs": [],
      "stateMutability": "nonpayable",
      "type": "function"
    },
    {
      "inputs": [
        {
          "internalType": "address",
          "name": "from",
          "type": "address"
        },
        {
          "internalType": "address",
          "name": "to",
          "type": "address"
        },
        {
          "internalType": "uint256",
          "name": "tokenId",
          "type": "uint256"
        }
      ],
      "name": "safeTransferFrom",
      "outputs": [],
      "stateMutability": "nonpayable",
      "type": "function"
    },
    {
      "inputs": [
        {
          "internalType": "address",
          "name": "from",
          "type": "address"
        },
        {
          "internalType": "address",
          "name": "to",
          "type": "address"
        },
        {
          "internalType": "uint256",
          "name": "tokenId",
          "type": "uint256"
        },
        {
          "internalType": "bytes",
          "name": "_data",
          "type": "bytes"
        }
      ],
      "name": "safeTransferFrom",
      "outputs": [],
      "stateMutability": "nonpayable",
      "type": "function"
    },
    {
      "inputs": [
        {
          "internalType": "address",
          "name": "operator",
          "type": "address"
        },
        {
          "internalType": "bool",
          "name": "approved",
          "type": "bool"
        }
      ],
      "name": "setApprovalForAll",
      "outputs": [],
      "stateMutability": "nonpayable",
      "type": "function"
    },
    {
      "inputs": [
        {
          "internalType": "bytes4",
          "name": "interfaceId",
          "type": "bytes4"
        }
      ],
      "name": "supportsInterface",
      "outputs": [
        {
          "internalType": "bool",
          "name": "",
          "type": "bool"
        }
      ],
      "stateMutability": "view",
      "type": "function"
    },
    {
      "inputs": [],
      "name": "symbol",
      "outputs": [
        {
          "internalType": "string",
          "name": "",
          "type": "string"
        }
      ],
      "stateMutability": "view",
      "type": "function"
    },
    {
      "inputs": [
        {
          "internalType": "uint256",
          "name": "tokenId",
          "type": "uint256"
        }
      ],
      "name": "tokenURI",
      "outputs": [
        {
          "internalType": "string",
          "name": "",
          "type": "string"
        }
      ],
      "stateMutability": "view",
      "type": "function"
    },
    {
      "inputs": [
        {
          "internalType": "address",
          "name": "from",
          "type": "address"
        },
        {
          "internalType": "address",
          "name": "to",
          "type": "address"
        },
        {
          "internalType": "uint256",
          "name": "tokenId",
          "type": "uint256"
        }
      ],
      "name": "transferFrom",
      "outputs": [],
      "stateMutability": "nonpayable",
      "type": "function"
    },
    {
      "inputs": [
        {
          "internalType": "address",
          "name": "newOwner",
          "type": "address"
        }
      ],
      "name": "transferOwnership",
      "outputs": [],
      "stateMutability": "nonpayable",
      "type": "function"
    }
  ],
  "transactionHash": "0xe30876411bb656185376902c6d5c1d67f84bd9e30c3c28d01ec4d9c2384fb17e",
  "args": [
    "Soulbound",
    "SBT"
  ],
  "numDeployments": 1,
  "solcInputHash": "954e1eada9fb255ee6728c90dd50ecd8",
  "bytecode": "0x60806040523480156200001157600080fd5b5060405162003855380380620038558339818101604052810190620000379190620003b0565b818181600090805190602001906200005192919062000163565b5080600190805190602001906200006a92919062000163565b5050506200008d620000816200009560201b60201c565b6200009d60201b60201c565b505062000499565b600033905090565b6000600760009054906101000a900473ffffffffffffffffffffffffffffffffffffffff16905081600760006101000a81548173ffffffffffffffffffffffffffffffffffffffff021916908373ffffffffffffffffffffffffffffffffffffffff1602179055508173ffffffffffffffffffffffffffffffffffffffff168173ffffffffffffffffffffffffffffffffffffffff167f8be0079c531659141344cd1fd0a4f28419497f9722a3daafe3b4186f6b6457e060405160405180910390a35050565b828054620001719062000464565b90600052602060002090601f016020900481019282620001955760008555620001e1565b82601f10620001b057805160ff1916838001178555620001e1565b82800160010185558215620001e1579182015b82811115620001e0578251825591602001919060010190620001c3565b5b509050620001f09190620001f4565b5090565b5b808211156200020f576000816000905550600101620001f5565b5090565b6000604051905090565b600080fd5b600080fd5b600080fd5b600080fd5b6000601f19601f8301169050919050565b7f4e487b7100000000000000000000000000000000000000000000000000000000600052604160045260246000fd5b6200027c8262000231565b810181811067ffffffffffffffff821117156200029e576200029d62000242565b5b80604052505050565b6000620002b362000213565b9050620002c1828262000271565b919050565b600067ffffffffffffffff821115620002e457620002e362000242565b5b620002ef8262000231565b9050602081019050919050565b60005b838110156200031c578082015181840152602081019050620002ff565b838111156200032c576000848401525b50505050565b6000620003496200034384620002c6565b620002a7565b9050828152602081018484840111156200036857620003676200022c565b5b62000375848285620002fc565b509392505050565b600082601f83011262000395576200039462000227565b5b8151620003a784826020860162000332565b91505092915050565b60008060408385031215620003ca57620003c96200021d565b5b600083015167ffffffffffffffff811115620003eb57620003ea62000222565b5b620003f9858286016200037d565b925050602083015167ffffffffffffffff8111156200041d576200041c62000222565b5b6200042b858286016200037d565b9150509250929050565b7f4e487b7100000000000000000000000000000000000000000000000000000000600052602260045260246000fd5b600060028204905060018216806200047d57607f821691505b60208210810362000493576200049262000435565b5b50919050565b6133ac80620004a96000396000f3fe608060405234801561001057600080fd5b50600436106101165760003560e01c8063715018a6116100a2578063b88d4fde11610071578063b88d4fde146102cb578063c87b56dd146102e7578063d204c45e14610317578063e985e9c514610333578063f2fde38b1461036357610116565b8063715018a6146102695780638da5cb5b1461027357806395d89b4114610291578063a22cb465146102af57610116565b806323b872dd116100e957806323b872dd146101b557806342842e0e146101d157806342966c68146101ed5780636352211e1461020957806370a082311461023957610116565b806301ffc9a71461011b57806306fdde031461014b578063081812fc14610169578063095ea7b314610199575b600080fd5b61013560048036038101906101309190611f80565b61037f565b6040516101429190611fc8565b60405180910390f35b610153610461565b604051610160919061207c565b60405180910390f35b610183600480360381019061017e91906120d4565b6104f3565b6040516101909190612142565b60405180910390f35b6101b360048036038101906101ae9190612189565b610578565b005b6101cf60048036038101906101ca91906121c9565b61068f565b005b6101eb60048036038101906101e691906121c9565b6106ef565b005b610207600480360381019061020291906120d4565b61070f565b005b610223600480360381019061021e91906120d4565b61076b565b6040516102309190612142565b60405180910390f35b610253600480360381019061024e919061221c565b61081c565b6040516102609190612258565b60405180910390f35b6102716108d3565b005b61027b61095b565b6040516102889190612142565b60405180910390f35b610299610985565b6040516102a6919061207c565b60405180910390f35b6102c960048036038101906102c4919061229f565b610a17565b005b6102e560048036038101906102e09190612414565b610a2d565b005b61030160048036038101906102fc91906120d4565b610a8f565b60405161030e919061207c565b60405180910390f35b610331600480360381019061032c9190612538565b610aa1565b005b61034d60048036038101906103489190612594565b610b4e565b60405161035a9190611fc8565b60405180910390f35b61037d6004803603810190610378919061221c565b610be2565b005b60007f80ac58cd000000000000000000000000000000000000000000000000000000007bffffffffffffffffffffffffffffffffffffffffffffffffffffffff1916827bffffffffffffffffffffffffffffffffffffffffffffffffffffffff1916148061044a57507f5b5e139f000000000000000000000000000000000000000000000000000000007bffffffffffffffffffffffffffffffffffffffffffffffffffffffff1916827bffffffffffffffffffffffffffffffffffffffffffffffffffffffff1916145b8061045a575061045982610cd9565b5b9050919050565b60606000805461047090612603565b80601f016020809104026020016040519081016040528092919081815260200182805461049c90612603565b80156104e95780601f106104be576101008083540402835291602001916104e9565b820191906000526020600020905b8154815290600101906020018083116104cc57829003601f168201915b5050505050905090565b60006104fe82610d43565b61053d576040517f08c379a0000000000000000000000000000000000000000000000000000000008152600401610534906126a6565b60405180910390fd5b6004600083815260200190815260200160002060009054906101000a900473ffffffffffffffffffffffffffffffffffffffff169050919050565b60006105838261076b565b90508073ffffffffffffffffffffffffffffffffffffffff168373ffffffffffffffffffffffffffffffffffffffff16036105f3576040517f08c379a00000000000000000000000000000000000000000000000000000000081526004016105ea90612738565b60405180910390fd5b8073ffffffffffffffffffffffffffffffffffffffff16610612610daf565b73ffffffffffffffffffffffffffffffffffffffff16148061064157506106408161063b610daf565b610b4e565b5b610680576040517f08c379a0000000000000000000000000000000000000000000000000000000008152600401610677906127ca565b60405180910390fd5b61068a8383610db7565b505050565b6106a061069a610daf565b82610e70565b6106df576040517f08c379a00000000000000000000000000000000000000000000000000000000081526004016106d69061285c565b60405180910390fd5b6106ea838383610f4e565b505050565b61070a83838360405180602001604052806000815250610a2d565b505050565b61072061071a610daf565b82610e70565b61075f576040517f08c379a0000000000000000000000000000000000000000000000000000000008152600401610756906128ee565b60405180910390fd5b610768816111b4565b50565b6000806002600084815260200190815260200160002060009054906101000a900473ffffffffffffffffffffffffffffffffffffffff169050600073ffffffffffffffffffffffffffffffffffffffff168173ffffffffffffffffffffffffffffffffffffffff1603610813576040517f08c379a000000000000000000000000000000000000000000000000000000000815260040161080a90612980565b60405180910390fd5b80915050919050565b60008073ffffffffffffffffffffffffffffffffffffffff168273ffffffffffffffffffffffffffffffffffffffff160361088c576040517f08c379a000000000000000000000000000000000000000000000000000000000815260040161088390612a12565b60405180910390fd5b600360008373ffffffffffffffffffffffffffffffffffffffff1673ffffffffffffffffffffffffffffffffffffffff168152602001908152602001600020549050919050565b6108db610daf565b73ffffffffffffffffffffffffffffffffffffffff166108f961095b565b73ffffffffffffffffffffffffffffffffffffffff161461094f576040517f08c379a000000000000000000000000000000000000000000000000000000000815260040161094690612a7e565b60405180910390fd5b61095960006111c0565b565b6000600760009054906101000a900473ffffffffffffffffffffffffffffffffffffffff16905090565b60606001805461099490612603565b80601f01602080910402602001604051908101604052809291908181526020018280546109c090612603565b8015610a0d5780601f106109e257610100808354040283529160200191610a0d565b820191906000526020600020905b8154815290600101906020018083116109f057829003601f168201915b5050505050905090565b610a29610a22610daf565b8383611286565b5050565b610a3e610a38610daf565b83610e70565b610a7d576040517f08c379a0000000000000000000000000000000000000000000000000000000008152600401610a749061285c565b60405180910390fd5b610a89848484846113f2565b50505050565b6060610a9a8261144e565b9050919050565b610aa9610daf565b73ffffffffffffffffffffffffffffffffffffffff16610ac761095b565b73ffffffffffffffffffffffffffffffffffffffff1614610b1d576040517f08c379a0000000000000000000000000000000000000000000000000000000008152600401610b1490612a7e565b60405180910390fd5b6000610b29600861159f565b9050610b3560086115ad565b610b3f83826115c3565b610b4981836115e1565b505050565b6000600560008473ffffffffffffffffffffffffffffffffffffffff1673ffffffffffffffffffffffffffffffffffffffff16815260200190815260200160002060008373ffffffffffffffffffffffffffffffffffffffff1673ffffffffffffffffffffffffffffffffffffffff16815260200190815260200160002060009054906101000a900460ff16905092915050565b610bea610daf565b73ffffffffffffffffffffffffffffffffffffffff16610c0861095b565b73ffffffffffffffffffffffffffffffffffffffff1614610c5e576040517f08c379a0000000000000000000000000000000000000000000000000000000008152600401610c5590612a7e565b60405180910390fd5b600073ffffffffffffffffffffffffffffffffffffffff168173ffffffffffffffffffffffffffffffffffffffff1603610ccd576040517f08c379a0000000000000000000000000000000000000000000000000000000008152600401610cc490612b10565b60405180910390fd5b610cd6816111c0565b50565b60007f01ffc9a7000000000000000000000000000000000000000000000000000000007bffffffffffffffffffffffffffffffffffffffffffffffffffffffff1916827bffffffffffffffffffffffffffffffffffffffffffffffffffffffff1916149050919050565b60008073ffffffffffffffffffffffffffffffffffffffff166002600084815260200190815260200160002060009054906101000a900473ffffffffffffffffffffffffffffffffffffffff1673ffffffffffffffffffffffffffffffffffffffff1614159050919050565b600033905090565b816004600083815260200190815260200160002060006101000a81548173ffffffffffffffffffffffffffffffffffffffff021916908373ffffffffffffffffffffffffffffffffffffffff160217905550808273ffffffffffffffffffffffffffffffffffffffff16610e2a8361076b565b73ffffffffffffffffffffffffffffffffffffffff167f8c5be1e5ebec7d5bd14f71427d1e84f3dd0314c0f7b2291e5b200ac8c7c3b92560405160405180910390a45050565b6000610e7b82610d43565b610eba576040517f08c379a0000000000000000000000000000000000000000000000000000000008152600401610eb190612ba2565b60405180910390fd5b6000610ec58361076b565b90508073ffffffffffffffffffffffffffffffffffffffff168473ffffffffffffffffffffffffffffffffffffffff161480610f075750610f068185610b4e565b5b80610f4557508373ffffffffffffffffffffffffffffffffffffffff16610f2d846104f3565b73ffffffffffffffffffffffffffffffffffffffff16145b91505092915050565b8273ffffffffffffffffffffffffffffffffffffffff16610f6e8261076b565b73ffffffffffffffffffffffffffffffffffffffff1614610fc4576040517f08c379a0000000000000000000000000000000000000000000000000000000008152600401610fbb90612c34565b60405180910390fd5b600073ffffffffffffffffffffffffffffffffffffffff168273ffffffffffffffffffffffffffffffffffffffff1603611033576040517f08c379a000000000000000000000000000000000000000000000000000000000815260040161102a90612cc6565b60405180910390fd5b61103e838383611655565b611049600082610db7565b6001600360008573ffffffffffffffffffffffffffffffffffffffff1673ffffffffffffffffffffffffffffffffffffffff16815260200190815260200160002060008282546110999190612d15565b925050819055506001600360008473ffffffffffffffffffffffffffffffffffffffff1673ffffffffffffffffffffffffffffffffffffffff16815260200190815260200160002060008282546110f09190612d49565b92505081905550816002600083815260200190815260200160002060006101000a81548173ffffffffffffffffffffffffffffffffffffffff021916908373ffffffffffffffffffffffffffffffffffffffff160217905550808273ffffffffffffffffffffffffffffffffffffffff168473ffffffffffffffffffffffffffffffffffffffff167fddf252ad1be2c89b69c2b068fc378daa952ba7f163c4a11628f55a4df523b3ef60405160405180910390a46111af8383836116c0565b505050565b6111bd816116c5565b50565b6000600760009054906101000a900473ffffffffffffffffffffffffffffffffffffffff16905081600760006101000a81548173ffffffffffffffffffffffffffffffffffffffff021916908373ffffffffffffffffffffffffffffffffffffffff1602179055508173ffffffffffffffffffffffffffffffffffffffff168173ffffffffffffffffffffffffffffffffffffffff167f8be0079c531659141344cd1fd0a4f28419497f9722a3daafe3b4186f6b6457e060405160405180910390a35050565b8173ffffffffffffffffffffffffffffffffffffffff168373ffffffffffffffffffffffffffffffffffffffff16036112f4576040517f08c379a00000000000000000000000000000000000000000000000000000000081526004016112eb90612deb565b60405180910390fd5b80600560008573ffffffffffffffffffffffffffffffffffffffff1673ffffffffffffffffffffffffffffffffffffffff16815260200190815260200160002060008473ffffffffffffffffffffffffffffffffffffffff1673ffffffffffffffffffffffffffffffffffffffff16815260200190815260200160002060006101000a81548160ff0219169083151502179055508173ffffffffffffffffffffffffffffffffffffffff168373ffffffffffffffffffffffffffffffffffffffff167f17307eab39ab6107e8899845ad3d59bd9653f200f220920489ca2b5937696c31836040516113e59190611fc8565b60405180910390a3505050565b6113fd848484610f4e565b61140984848484611718565b611448576040517f08c379a000000000000000000000000000000000000000000000000000000000815260040161143f90612e7d565b60405180910390fd5b50505050565b606061145982610d43565b611498576040517f08c379a000000000000000000000000000000000000000000000000000000000815260040161148f90612f0f565b60405180910390fd5b60006006600084815260200190815260200160002080546114b890612603565b80601f01602080910402602001604051908101604052809291908181526020018280546114e490612603565b80156115315780601f1061150657610100808354040283529160200191611531565b820191906000526020600020905b81548152906001019060200180831161151457829003601f168201915b50505050509050600061154261189f565b9050600081510361155757819250505061159a565b60008251111561158c578082604051602001611574929190612f6b565b6040516020818303038152906040529250505061159a565b611595846118b6565b925050505b919050565b600081600001549050919050565b6001816000016000828254019250508190555050565b6115dd82826040518060200160405280600081525061195d565b5050565b6115ea82610d43565b611629576040517f08c379a000000000000000000000000000000000000000000000000000000000815260040161162090613001565b60405180910390fd5b80600660008481526020019081526020016000209080519060200190611650929190611e31565b505050565b600073ffffffffffffffffffffffffffffffffffffffff168373ffffffffffffffffffffffffffffffffffffffff16146116bb576040517f5db570fb00000000000000000000000000000000000000000000000000000000815260040160405180910390fd5b505050565b505050565b6116ce816119b8565b60006006600083815260200190815260200160002080546116ee90612603565b905014611715576006600082815260200190815260200160002060006117149190611eb7565b5b50565b60006117398473ffffffffffffffffffffffffffffffffffffffff16611ad5565b15611892578373ffffffffffffffffffffffffffffffffffffffff1663150b7a02611762610daf565b8786866040518563ffffffff1660e01b81526004016117849493929190613076565b6020604051808303816000875af19250505080156117c057506040513d601f19601f820116820180604052508101906117bd91906130d7565b60015b611842573d80600081146117f0576040519150601f19603f3d011682016040523d82523d6000602084013e6117f5565b606091505b50600081510361183a576040517f08c379a000000000000000000000000000000000000000000000000000000000815260040161183190612e7d565b60405180910390fd5b805181602001fd5b63150b7a0260e01b7bffffffffffffffffffffffffffffffffffffffffffffffffffffffff1916817bffffffffffffffffffffffffffffffffffffffffffffffffffffffff191614915050611897565b600190505b949350505050565b606060405180602001604052806000815250905090565b60606118c182610d43565b611900576040517f08c379a00000000000000000000000000000000000000000000000000000000081526004016118f790613176565b60405180910390fd5b600061190a61189f565b9050600081511161192a5760405180602001604052806000815250611955565b8061193484611af8565b604051602001611945929190612f6b565b6040516020818303038152906040525b915050919050565b6119678383611c58565b6119746000848484611718565b6119b3576040517f08c379a00000000000000000000000000000000000000000000000000000000081526004016119aa90612e7d565b60405180910390fd5b505050565b60006119c38261076b565b90506119d181600084611655565b6119dc600083610db7565b6001600360008373ffffffffffffffffffffffffffffffffffffffff1673ffffffffffffffffffffffffffffffffffffffff1681526020019081526020016000206000828254611a2c9190612d15565b925050819055506002600083815260200190815260200160002060006101000a81549073ffffffffffffffffffffffffffffffffffffffff021916905581600073ffffffffffffffffffffffffffffffffffffffff168273ffffffffffffffffffffffffffffffffffffffff167fddf252ad1be2c89b69c2b068fc378daa952ba7f163c4a11628f55a4df523b3ef60405160405180910390a4611ad1816000846116c0565b5050565b6000808273ffffffffffffffffffffffffffffffffffffffff163b119050919050565b606060008203611b3f576040518060400160405280600181526020017f30000000000000000000000000000000000000000000000000000000000000008152509050611c53565b600082905060005b60008214611b71578080611b5a90613196565b915050600a82611b6a919061320d565b9150611b47565b60008167ffffffffffffffff811115611b8d57611b8c6122e9565b5b6040519080825280601f01601f191660200182016040528015611bbf5781602001600182028036833780820191505090505b5090505b60008514611c4c57600182611bd89190612d15565b9150600a85611be7919061323e565b6030611bf39190612d49565b60f81b818381518110611c0957611c0861326f565b5b60200101907effffffffffffffffffffffffffffffffffffffffffffffffffffffffffffff1916908160001a905350600a85611c45919061320d565b9450611bc3565b8093505050505b919050565b600073ffffffffffffffffffffffffffffffffffffffff168273ffffffffffffffffffffffffffffffffffffffff1603611cc7576040517f08c379a0000000000000000000000000000000000000000000000000000000008152600401611cbe906132ea565b60405180910390fd5b611cd081610d43565b15611d10576040517f08c379a0000000000000000000000000000000000000000000000000000000008152600401611d0790613356565b60405180910390fd5b611d1c60008383611655565b6001600360008473ffffffffffffffffffffffffffffffffffffffff1673ffffffffffffffffffffffffffffffffffffffff1681526020019081526020016000206000828254611d6c9190612d49565b92505081905550816002600083815260200190815260200160002060006101000a81548173ffffffffffffffffffffffffffffffffffffffff021916908373ffffffffffffffffffffffffffffffffffffffff160217905550808273ffffffffffffffffffffffffffffffffffffffff16600073ffffffffffffffffffffffffffffffffffffffff167fddf252ad1be2c89b69c2b068fc378daa952ba7f163c4a11628f55a4df523b3ef60405160405180910390a4611e2d600083836116c0565b5050565b828054611e3d90612603565b90600052602060002090601f016020900481019282611e5f5760008555611ea6565b82601f10611e7857805160ff1916838001178555611ea6565b82800160010185558215611ea6579182015b82811115611ea5578251825591602001919060010190611e8a565b5b509050611eb39190611ef7565b5090565b508054611ec390612603565b6000825580601f10611ed55750611ef4565b601f016020900490600052602060002090810190611ef39190611ef7565b5b50565b5b80821115611f10576000816000905550600101611ef8565b5090565b6000604051905090565b600080fd5b600080fd5b60007fffffffff0000000000000000000000000000000000000000000000000000000082169050919050565b611f5d81611f28565b8114611f6857600080fd5b50565b600081359050611f7a81611f54565b92915050565b600060208284031215611f9657611f95611f1e565b5b6000611fa484828501611f6b565b91505092915050565b60008115159050919050565b611fc281611fad565b82525050565b6000602082019050611fdd6000830184611fb9565b92915050565b600081519050919050565b600082825260208201905092915050565b60005b8381101561201d578082015181840152602081019050612002565b8381111561202c576000848401525b50505050565b6000601f19601f8301169050919050565b600061204e82611fe3565b6120588185611fee565b9350612068818560208601611fff565b61207181612032565b840191505092915050565b600060208201905081810360008301526120968184612043565b905092915050565b6000819050919050565b6120b18161209e565b81146120bc57600080fd5b50565b6000813590506120ce816120a8565b92915050565b6000602082840312156120ea576120e9611f1e565b5b60006120f8848285016120bf565b91505092915050565b600073ffffffffffffffffffffffffffffffffffffffff82169050919050565b600061212c82612101565b9050919050565b61213c81612121565b82525050565b60006020820190506121576000830184612133565b92915050565b61216681612121565b811461217157600080fd5b50565b6000813590506121838161215d565b92915050565b600080604083850312156121a05761219f611f1e565b5b60006121ae85828601612174565b92505060206121bf858286016120bf565b9150509250929050565b6000806000606084860312156121e2576121e1611f1e565b5b60006121f086828701612174565b935050602061220186828701612174565b9250506040612212868287016120bf565b9150509250925092565b60006020828403121561223257612231611f1e565b5b600061224084828501612174565b91505092915050565b6122528161209e565b82525050565b600060208201905061226d6000830184612249565b92915050565b61227c81611fad565b811461228757600080fd5b50565b60008135905061229981612273565b92915050565b600080604083850312156122b6576122b5611f1e565b5b60006122c485828601612174565b92505060206122d58582860161228a565b9150509250929050565b600080fd5b600080fd5b7f4e487b7100000000000000000000000000000000000000000000000000000000600052604160045260246000fd5b61232182612032565b810181811067ffffffffffffffff821117156123405761233f6122e9565b5b80604052505050565b6000612353611f14565b905061235f8282612318565b919050565b600067ffffffffffffffff82111561237f5761237e6122e9565b5b61238882612032565b9050602081019050919050565b82818337600083830152505050565b60006123b76123b284612364565b612349565b9050828152602081018484840111156123d3576123d26122e4565b5b6123de848285612395565b509392505050565b600082601f8301126123fb576123fa6122df565b5b813561240b8482602086016123a4565b91505092915050565b6000806000806080858703121561242e5761242d611f1e565b5b600061243c87828801612174565b945050602061244d87828801612174565b935050604061245e878288016120bf565b925050606085013567ffffffffffffffff81111561247f5761247e611f23565b5b61248b878288016123e6565b91505092959194509250565b600067ffffffffffffffff8211156124b2576124b16122e9565b5b6124bb82612032565b9050602081019050919050565b60006124db6124d684612497565b612349565b9050828152602081018484840111156124f7576124f66122e4565b5b612502848285612395565b509392505050565b600082601f83011261251f5761251e6122df565b5b813561252f8482602086016124c8565b91505092915050565b6000806040838503121561254f5761254e611f1e565b5b600061255d85828601612174565b925050602083013567ffffffffffffffff81111561257e5761257d611f23565b5b61258a8582860161250a565b9150509250929050565b600080604083850312156125ab576125aa611f1e565b5b60006125b985828601612174565b92505060206125ca85828601612174565b9150509250929050565b7f4e487b7100000000000000000000000000000000000000000000000000000000600052602260045260246000fd5b6000600282049050600182168061261b57607f821691505b60208210810361262e5761262d6125d4565b5b50919050565b7f4552433732313a20617070726f76656420717565727920666f72206e6f6e657860008201527f697374656e7420746f6b656e0000000000000000000000000000000000000000602082015250565b6000612690602c83611fee565b915061269b82612634565b604082019050919050565b600060208201905081810360008301526126bf81612683565b9050919050565b7f4552433732313a20617070726f76616c20746f2063757272656e74206f776e6560008201527f7200000000000000000000000000000000000000000000000000000000000000602082015250565b6000612722602183611fee565b915061272d826126c6565b604082019050919050565b6000602082019050818103600083015261275181612715565b9050919050565b7f4552433732313a20617070726f76652063616c6c6572206973206e6f74206f7760008201527f6e6572206e6f7220617070726f76656420666f7220616c6c0000000000000000602082015250565b60006127b4603883611fee565b91506127bf82612758565b604082019050919050565b600060208201905081810360008301526127e3816127a7565b9050919050565b7f4552433732313a207472616e736665722063616c6c6572206973206e6f74206f60008201527f776e6572206e6f7220617070726f766564000000000000000000000000000000602082015250565b6000612846603183611fee565b9150612851826127ea565b604082019050919050565b6000602082019050818103600083015261287581612839565b9050919050565b7f4552433732314275726e61626c653a2063616c6c6572206973206e6f74206f7760008201527f6e6572206e6f7220617070726f76656400000000000000000000000000000000602082015250565b60006128d8603083611fee565b91506128e38261287c565b604082019050919050565b60006020820190508181036000830152612907816128cb565b9050919050565b7f4552433732313a206f776e657220717565727920666f72206e6f6e657869737460008201527f656e7420746f6b656e0000000000000000000000000000000000000000000000602082015250565b600061296a602983611fee565b91506129758261290e565b604082019050919050565b600060208201905081810360008301526129998161295d565b9050919050565b7f4552433732313a2062616c616e636520717565727920666f7220746865207a6560008201527f726f206164647265737300000000000000000000000000000000000000000000602082015250565b60006129fc602a83611fee565b9150612a07826129a0565b604082019050919050565b60006020820190508181036000830152612a2b816129ef565b9050919050565b7f4f776e61626c653a2063616c6c6572206973206e6f7420746865206f776e6572600082015250565b6000612a68602083611fee565b9150612a7382612a32565b602082019050919050565b60006020820190508181036000830152612a9781612a5b565b9050919050565b7f4f776e61626c653a206e6577206f776e657220697320746865207a65726f206160008201527f6464726573730000000000000000000000000000000000000000000000000000602082015250565b6000612afa602683611fee565b9150612b0582612a9e565b604082019050919050565b60006020820190508181036000830152612b2981612aed565b9050919050565b7f4552433732313a206f70657261746f7220717565727920666f72206e6f6e657860008201527f697374656e7420746f6b656e0000000000000000000000000000000000000000602082015250565b6000612b8c602c83611fee565b9150612b9782612b30565b604082019050919050565b60006020820190508181036000830152612bbb81612b7f565b9050919050565b7f4552433732313a207472616e736665722066726f6d20696e636f72726563742060008201527f6f776e6572000000000000000000000000000000000000000000000000000000602082015250565b6000612c1e602583611fee565b9150612c2982612bc2565b604082019050919050565b60006020820190508181036000830152612c4d81612c11565b9050919050565b7f4552433732313a207472616e7366657220746f20746865207a65726f2061646460008201527f7265737300000000000000000000000000000000000000000000000000000000602082015250565b6000612cb0602483611fee565b9150612cbb82612c54565b604082019050919050565b60006020820190508181036000830152612cdf81612ca3565b9050919050565b7f4e487b7100000000000000000000000000000000000000000000000000000000600052601160045260246000fd5b6000612d208261209e565b9150612d2b8361209e565b925082821015612d3e57612d3d612ce6565b5b828203905092915050565b6000612d548261209e565b9150612d5f8361209e565b9250827fffffffffffffffffffffffffffffffffffffffffffffffffffffffffffffffff03821115612d9457612d93612ce6565b5b828201905092915050565b7f4552433732313a20617070726f766520746f2063616c6c657200000000000000600082015250565b6000612dd5601983611fee565b9150612de082612d9f565b602082019050919050565b60006020820190508181036000830152612e0481612dc8565b9050919050565b7f4552433732313a207472616e7366657220746f206e6f6e20455243373231526560008201527f63656976657220696d706c656d656e7465720000000000000000000000000000602082015250565b6000612e67603283611fee565b9150612e7282612e0b565b604082019050919050565b60006020820190508181036000830152612e9681612e5a565b9050919050565b7f45524337323155524953746f726167653a2055524920717565727920666f722060008201527f6e6f6e6578697374656e7420746f6b656e000000000000000000000000000000602082015250565b6000612ef9603183611fee565b9150612f0482612e9d565b604082019050919050565b60006020820190508181036000830152612f2881612eec565b9050919050565b600081905092915050565b6000612f4582611fe3565b612f4f8185612f2f565b9350612f5f818560208601611fff565b80840191505092915050565b6000612f778285612f3a565b9150612f838284612f3a565b91508190509392505050565b7f45524337323155524953746f726167653a2055524920736574206f66206e6f6e60008201527f6578697374656e7420746f6b656e000000000000000000000000000000000000602082015250565b6000612feb602e83611fee565b9150612ff682612f8f565b604082019050919050565b6000602082019050818103600083015261301a81612fde565b9050919050565b600081519050919050565b600082825260208201905092915050565b600061304882613021565b613052818561302c565b9350613062818560208601611fff565b61306b81612032565b840191505092915050565b600060808201905061308b6000830187612133565b6130986020830186612133565b6130a56040830185612249565b81810360608301526130b7818461303d565b905095945050505050565b6000815190506130d181611f54565b92915050565b6000602082840312156130ed576130ec611f1e565b5b60006130fb848285016130c2565b91505092915050565b7f4552433732314d657461646174613a2055524920717565727920666f72206e6f60008201527f6e6578697374656e7420746f6b656e0000000000000000000000000000000000602082015250565b6000613160602f83611fee565b915061316b82613104565b604082019050919050565b6000602082019050818103600083015261318f81613153565b9050919050565b60006131a18261209e565b91507fffffffffffffffffffffffffffffffffffffffffffffffffffffffffffffffff82036131d3576131d2612ce6565b5b600182019050919050565b7f4e487b7100000000000000000000000000000000000000000000000000000000600052601260045260246000fd5b60006132188261209e565b91506132238361209e565b925082613233576132326131de565b5b828204905092915050565b60006132498261209e565b91506132548361209e565b925082613264576132636131de565b5b828206905092915050565b7f4e487b7100000000000000000000000000000000000000000000000000000000600052603260045260246000fd5b7f4552433732313a206d696e7420746f20746865207a65726f2061646472657373600082015250565b60006132d4602083611fee565b91506132df8261329e565b602082019050919050565b60006020820190508181036000830152613303816132c7565b9050919050565b7f4552433732313a20746f6b656e20616c7265616479206d696e74656400000000600082015250565b6000613340601c83611fee565b915061334b8261330a565b602082019050919050565b6000602082019050818103600083015261336f81613333565b905091905056fea264697066735822122080fcdbaa7e6135e36923d2f80fb3007286e80a45605289cef05ff21cdb2c81ea64736f6c634300080d0033",
  "devdoc": {
    "kind": "dev",
    "methods": {
      "approve(address,uint256)": {
        "details": "See {IERC721-approve}."
      },
      "balanceOf(address)": {
        "details": "See {IERC721-balanceOf}."
      },
      "burn(uint256)": {
        "details": "Burns `tokenId`. See {ERC721-_burn}. Requirements: - The caller must own `tokenId` or be an approved operator."
      },
      "getApproved(uint256)": {
        "details": "See {IERC721-getApproved}."
      },
      "isApprovedForAll(address,address)": {
        "details": "See {IERC721-isApprovedForAll}."
      },
      "name()": {
        "details": "See {IERC721Metadata-name}."
      },
      "owner()": {
        "details": "Returns the address of the current owner."
      },
      "ownerOf(uint256)": {
        "details": "See {IERC721-ownerOf}."
      },
      "renounceOwnership()": {
        "details": "Leaves the contract without owner. It will not be possible to call `onlyOwner` functions anymore. Can only be called by the current owner. NOTE: Renouncing ownership will leave the contract without an owner, thereby removing any functionality that is only available to the owner."
      },
      "safeTransferFrom(address,address,uint256)": {
        "details": "See {IERC721-safeTransferFrom}."
      },
      "safeTransferFrom(address,address,uint256,bytes)": {
        "details": "See {IERC721-safeTransferFrom}."
      },
      "setApprovalForAll(address,bool)": {
        "details": "See {IERC721-setApprovalForAll}."
      },
      "supportsInterface(bytes4)": {
        "details": "See {IERC165-supportsInterface}."
      },
      "symbol()": {
        "details": "See {IERC721Metadata-symbol}."
      },
      "transferFrom(address,address,uint256)": {
        "details": "See {IERC721-transferFrom}."
      },
      "transferOwnership(address)": {
        "details": "Transfers ownership of the contract to a new account (`newOwner`). Can only be called by the current owner."
      }
    },
    "version": 1
  },
  "userdoc": {
    "kind": "user",
    "methods": {},
    "version": 1
  },
  "storageLayout": {
    "storage": [
      {
        "astId": 208,
        "contract": "contracts/Soulbound.sol:Soulbound",
        "label": "_name",
        "offset": 0,
        "slot": "0",
        "type": "t_string_storage"
      },
      {
        "astId": 210,
        "contract": "contracts/Soulbound.sol:Soulbound",
        "label": "_symbol",
        "offset": 0,
        "slot": "1",
        "type": "t_string_storage"
      },
      {
        "astId": 214,
        "contract": "contracts/Soulbound.sol:Soulbound",
        "label": "_owners",
        "offset": 0,
        "slot": "2",
        "type": "t_mapping(t_uint256,t_address)"
      },
      {
        "astId": 218,
        "contract": "contracts/Soulbound.sol:Soulbound",
        "label": "_balances",
        "offset": 0,
        "slot": "3",
        "type": "t_mapping(t_address,t_uint256)"
      },
      {
        "astId": 222,
        "contract": "contracts/Soulbound.sol:Soulbound",
        "label": "_tokenApprovals",
        "offset": 0,
        "slot": "4",
        "type": "t_mapping(t_uint256,t_address)"
      },
      {
        "astId": 228,
        "contract": "contracts/Soulbound.sol:Soulbound",
        "label": "_operatorApprovals",
        "offset": 0,
        "slot": "5",
        "type": "t_mapping(t_address,t_mapping(t_address,t_bool))"
      },
      {
        "astId": 1225,
        "contract": "contracts/Soulbound.sol:Soulbound",
        "label": "_tokenURIs",
        "offset": 0,
        "slot": "6",
        "type": "t_mapping(t_uint256,t_string_storage)"
      },
      {
        "astId": 7,
        "contract": "contracts/Soulbound.sol:Soulbound",
        "label": "_owner",
        "offset": 0,
        "slot": "7",
        "type": "t_address"
      },
      {
        "astId": 2329,
        "contract": "contracts/Soulbound.sol:Soulbound",
        "label": "_tokenIdCounter",
        "offset": 0,
        "slot": "8",
        "type": "t_struct(Counter)1690_storage"
      }
    ],
    "types": {
      "t_address": {
        "encoding": "inplace",
        "label": "address",
        "numberOfBytes": "20"
      },
      "t_bool": {
        "encoding": "inplace",
        "label": "bool",
        "numberOfBytes": "1"
      },
      "t_mapping(t_address,t_bool)": {
        "encoding": "mapping",
        "key": "t_address",
        "label": "mapping(address => bool)",
        "numberOfBytes": "32",
        "value": "t_bool"
      },
      "t_mapping(t_address,t_mapping(t_address,t_bool))": {
        "encoding": "mapping",
        "key": "t_address",
        "label": "mapping(address => mapping(address => bool))",
        "numberOfBytes": "32",
        "value": "t_mapping(t_address,t_bool)"
      },
      "t_mapping(t_address,t_uint256)": {
        "encoding": "mapping",
        "key": "t_address",
        "label": "mapping(address => uint256)",
        "numberOfBytes": "32",
        "value": "t_uint256"
      },
      "t_mapping(t_uint256,t_address)": {
        "encoding": "mapping",
        "key": "t_uint256",
        "label": "mapping(uint256 => address)",
        "numberOfBytes": "32",
        "value": "t_address"
      },
      "t_mapping(t_uint256,t_string_storage)": {
        "encoding": "mapping",
        "key": "t_uint256",
        "label": "mapping(uint256 => string)",
        "numberOfBytes": "32",
        "value": "t_string_storage"
      },
      "t_string_storage": {
        "encoding": "bytes",
        "label": "string",
        "numberOfBytes": "32"
      },
      "t_struct(Counter)1690_storage": {
        "encoding": "inplace",
        "label": "struct Counters.Counter",
        "members": [
          {
            "astId": 1689,
            "contract": "contracts/Soulbound.sol:Soulbound",
            "label": "_value",
            "offset": 0,
            "slot": "0",
            "type": "t_uint256"
          }
        ],
        "numberOfBytes": "32"
      },
      "t_uint256": {
        "encoding": "inplace",
        "label": "uint256",
        "numberOfBytes": "32"
      }
    }
  }
}