{
  "address": "0xA77254E6Ab467c9759E22ecc0325feB1Fd3f49e2",
  "abi": [
    {
      "inputs": [
        {
          "internalType": "address",
          "name": "from",
          "type": "address"
        }
      ],
      "name": "hasCompleted",
      "outputs": [
        {
          "internalType": "bool",
          "name": "",
          "type": "bool"
        }
      ],
      "stateMutability": "view",
      "type": "function"
    }
  ],
  "transactionHash": "0xc1635d18d2013849ac054282984cb6e6f78e2260228a70cce5ef6a88c3ff1c11",
  "args": [],
  "numDeployments": 1,
  "solcInputHash": "64d9e8053013169b285d59173473b217",
  "bytecode": "0x608060405234801561001057600080fd5b5061015e806100206000396000f3fe608060405234801561001057600080fd5b506004361061002b5760003560e01c806331f2925014610030575b600080fd5b61004a60048036038101906100459190610080565b610060565b60405161005791906100b8565b60405180910390f35b600060019050919050565b60008135905061007a81610111565b92915050565b60006020828403121561009257600080fd5b60006100a08482850161006b565b91505092915050565b6100b2816100e5565b82525050565b60006020820190506100cd60008301846100a9565b92915050565b60006100de826100f1565b9050919050565b60008115159050919050565b600073ffffffffffffffffffffffffffffffffffffffff82169050919050565b61011a816100d3565b811461012557600080fd5b5056fea26469706673582212208fe201b09f61dcf08b187fda0c5704c0cec6132a7b22e15e93f20a1f4abc032964736f6c63430008040033",
  "devdoc": {
    "kind": "dev",
    "methods": {
      "hasCompleted(address)": {
        "details": "Returns if `from` has completed the task `guildId`"
      }
    },
    "version": 1
  },
  "userdoc": {
    "kind": "user",
    "methods": {},
    "version": 1
  },
  "storageLayout": {
    "storage": [],
    "types": null
  }
}