{
  "address": "0x26b4e83a6608FDEa39b8C2C85A52bbB67E9f25B9",
  "abi": [
    {
      "inputs": [
        {
          "internalType": "address",
          "name": "from",
          "type": "address"
        }
      ],
      "name": "hasCompleted",
      "outputs": [
        {
          "internalType": "bool",
          "name": "",
          "type": "bool"
        }
      ],
      "stateMutability": "view",
      "type": "function"
    }
  ],
  "transactionHash": "0xaa28c4ebb885fc11ad86ff22ea78003723c47b40cc033f64513b2a329aac9c00",
  "args": [],
  "numDeployments": 1,
  "solcInputHash": "50f529505b1d0b3abda7ccc42b9f0d9a",
  "bytecode": "0x608060405234801561001057600080fd5b5061015e806100206000396000f3fe608060405234801561001057600080fd5b506004361061002b5760003560e01c806331f2925014610030575b600080fd5b61004a60048036038101906100459190610080565b610060565b60405161005791906100b8565b60405180910390f35b600060019050919050565b60008135905061007a81610111565b92915050565b60006020828403121561009257600080fd5b60006100a08482850161006b565b91505092915050565b6100b2816100e5565b82525050565b60006020820190506100cd60008301846100a9565b92915050565b60006100de826100f1565b9050919050565b60008115159050919050565b600073ffffffffffffffffffffffffffffffffffffffff82169050919050565b61011a816100d3565b811461012557600080fd5b5056fea26469706673582212208fe201b09f61dcf08b187fda0c5704c0cec6132a7b22e15e93f20a1f4abc032964736f6c63430008040033",
  "devdoc": {
    "kind": "dev",
    "methods": {
      "hasCompleted(address)": {
        "details": "Returns if `from` has completed the task `guildId`"
      }
    },
    "version": 1
  },
  "userdoc": {
    "kind": "user",
    "methods": {},
    "version": 1
  },
  "storageLayout": {
    "storage": [],
    "types": null
  }
}